:020000040000FA
:06000000020A440201CED9
:03002B0002088F39
:030033000206AB17
:030043000207446D
:030053000200FFA9
:03006B00020691F9
:100083000201630101FF01010503010F10FEFF4699
:10009300134613461346130212FC1146133127006D
:1000A300000000CF26000000000C0000000C00013F
:1000B300FFFF414C443235333020503250000102AF
:1000C300006B05000000DE05E80364006400B8016E
:1000D30002020008000005020701051E02051E02B8
:1000E3000A0A03B80B02803E010201FFFF0A140152
:1000F300E01F00E00796511800020206C0E074F208
:100103001203E7A2AFE433FED2AFE5A7FFE5A1F503
:10011300085F54106006121B2675A1EFE5085F54B3
:10012300086008121B2C75A1F7802BEFA2E0C0D04A
:10013300E508A2E092F012096B158182F050179046
:100143006198E0F8900AC0E0C398A2D265D033501A
:1001530002E8F075A1FEEEA2E092AF7F0102044631
:10016300C0E074F21203E7A2AFE433FED2AF9061B2
:10017300A4E0F8759B00E59158540860087591F761
:10018300121B74802AE59158541060087591EF1280
:100193001B7A801BE8A2E0C0D0E591A2E092F012A6
:1001A300096B158182F05007E0C2E0F0121CBE908B
:1001B30061A3E0F8E5E9585404600E121C9475E954
:1001C300FB906193E0A2E640F2808BC0E074F212F0
:1001D30003E7A2AFE433FED2AF9061A5E0F8E5BF39
:1001E300585404600675BFFB121CD6020159C3E4C0
:1001F30098F8E499F91202328026C3E49AFAE49B50
:10020300FBE920E7E9120232E498F8E499F922C302
:10021300E498F8E499F9120232E498F8E499F9C3FE
:10022300E49AFAE49BFB22EB20E7CFE920E7E0B96D
:100233000010BB0008E88AF084F8AAF022E4FBC8A7
:10024300FA22EB70227B10C833C8C933C933500775
:10025300C39AC3DBF280069A50012ADBEAC833F45F
:10026300C8C933F4C9FA2275F008E4C833C8C933DE
:10027300C933C99AC99B5004C92AC93BD5F0ECFBC1
:10028300C833F4C8E4C9FA22080808EAC0E0EBC09E
:10029300E086F0E7A4FA180986F0E7A42AFA180919
:1002A30086F0E7A42AFA180986F0E7A42AFA198641
:1002B300F0E7A4FBE5F02AFA190886F0E7A42BFB84
:1002C300E5F03AFA190886F0E7A42BFBE5F03AFAD1
:1002D30018180986F0E7A4C5F02BFBE43AFA1908CD
:1002E300E7C5F0C6A426F6E5F03BFBE43AFA188628
:1002F300F0E7A4F6E5F00826F6E43B08F6E43A084E
:10030300F6D0E0FBD0E0FA22E4CFC0E0E4CEC0E0D8
:10031300E4CDC0E0E4CCC0E075F020C3E633F608DA
:10032300E633F608E633F608E633F6181818EC3326
:10033300FCED33FDEE33FEEF33FFC3EC9709ED978E
:1003430009EE9709EF97191919400FFFEC97FC096C
:10035300ED97FD09EE97FE191906D5F0BEECF709E6
:10036300EDF709EEF709EFF7191919D0E0FCD0E022
:10037300FDD0E0FED0E0FF222518C582C0E0E519DC
:1003830034FFC583C0E0E518C3958224F810AF0895
:100393008583198582188008858319858218D2AFD1
:1003A300CEF0A3E520F0A37808E608F0A3DEFAEF89
:1003B300F0A3E58124FAF8E608F0A3E608F0A3E643
:1003C30008F0A30808E608F0A3E608F0A3158115D2
:1003D30081D0E0FED0E0F8158115811581E8C0E0F9
:1003E300EEC0E022C0D02518C582C0E0E51934FF75
:1003F300C583C0E0E518C3958224F310AF08858355
:10040300198582188008858319858218D2AFC8F0B0
:10041300A3E9F0A3EAF0A3EBF0A37908E709F0A3BB
:10042300D8FAECF0A3EDF0A3EEF0A3EFF0A3D0E045
:10043300F0A3D0E0F0A3D0E0F0A3E520F0A3E5F033
:10044300F0A322851983851882E0C0E0A3E0F9A315
:10045300E0FAA3E0FBA37808E0F608A3DFFAE0FCE8
:10046300A3E0FDA3E0FEA3E0FFA3E0C0E0A3E0C0A0
:10047300E0A3E0F5D0A3E0F520A3E0A3F5F010AFEF
:10048300088583198582188008858319858218D287
:10049300AFD082D083D0E0F8D0E032120AA6B90000
:1004A300030204E0E49003017887790E8002F0A34D
:1004B300D8FCD9FA901087AA82AB83900086787A09
:1004C30079018015E493A3AC82AD838A828B83F098
:1004D300A3AA82AB838C828D83D8E9D9E77582DDA9
:1004E3007583E7740312080775826A75831F7400A6
:1004F300120807150075F0108E1A8F1B85821F8551
:10050300831E851882851983E0CEA3E0CF851F82E1
:10051300851E83EBC9EAC8EDCBECCAC3E833C8E94F
:1005230033C9EA33CAEB33CBC3EA9EF51DEB9FF520
:100533001CB35004AB1CAA1DEC33CCED33CDD5F06A
:10054300DAAE1AAF1B22D083D082ECC0E0EDC0E05C
:10055300E493A3FCE493A3FDED4C600D120621ECA0
:1005630024FFFCED34FFFD80EFE493A3FCE493A3AD
:10057300FDED4C600D1206EFEC24FFFCED34FFFDA6
:1005830080EFD0E0FDD0E0FCE493A3C0E0E493C0AF
:10059300E022851983851882E0A3FEE0A3F5207885
:1005A30008E0A3F608DFFAE0A3FFE0A3C0E0E0A3BE
:1005B300C0E0E0A3C0E0E0A3C0E0E0A3C0E010AF70
:1005C300088582188583198008858218858319D246
:1005D300AFD083D08202080DD083D082E9C0E0E49B
:1005E30093A3C386F0C5F095F0F908E493A386F0CE
:1005F300C5F095F0700BE493A3C3994005E904801B
:1006030002A3E475F002A42582F582E5F03583F5B3
:1006130083D0E0F9E493A3C0E0E493C0E022C0E018
:10062300C3E49396087401939618400FE49366709D
:100633000808740193661870007019A3A3C3E493A8
:1006430096087401939618A3A3400DD0E0D0E0D090
:10065300E0020585A3A3A3A3A3A3D0E0227404808F
:100663000474028000CCC0E0EDC0E0E518C39CCC6C
:10067300AD1950011D10AF068C188D1980068C180A
:100683008D19D2AF120789D0E0FDD0E0FC22C0E083
:1006930074F21203E7E589A2E150031219DC7589AC
:1006A30000C2C57F01020446C0E074F21203E7E50D
:1006B3008BA2E050031219DC758B00C2E880E4744E
:1006C300028000CCC0E0EDC0E0E518C39CCCAD19BE
:1006D30050011D10AF068C188D1980068C188D19CA
:1006E300D2AF120767D0E0FDD0E0FC22C0E0C0F03B
:1006F30088F0E4936670080874019366187000A884
:10070300F0A3A3700BD0F0D0E0D0E0D0E0020585D9
:10071300A3A3D0F0D0E022D083D082CCC0E0E49376
:10072300A360061207C91470FAE493A360061208C3
:10073300D91470FAD0E0FCE493A3C0E0E493C0E0E2
:1007430022C0E074F21203E7A2AFE433FED2AFC2D9
:10075300C0E5D1A2E45003121AA2EEA2E092AF7F49
:1007630001020446CAC0E0E493A3C582CCC582C596
:1007730083CDC583F0A3C582CCC582C583CDC58394
:10078300DAE5D0E0CA22CAC0E0E0A3C582CCC582C4
:10079300C583CDC583F0A3C582CCC582C583CDC532
:1007A30083DAE6D0E0CA2270090808082260161826
:1007B3001818C6C333C608C633C608C633C608C628
:1007C30033C6D5E0EA22C0E0E493A3D39C5010E4FF
:1007D30093A3C39C400AD0E0D0E0D0E0020737A344
:1007E300A3A3D0E022C008C3E096F50808A3E096CF
:1007F300420808A3E096420808A3E0964508700162
:10080300D3D00822C09FF59FE473D09F22D083D01A
:1008130082C09FE493C0E0740193C0E0740293F537
:100823009F222518F58210AF08F51840021519808C
:1008330008F51840021519D2AF8519832274048074
:100843000A74038006740280027401C0E0F4041287
:100853000825D0E0120A8122C0D0251810AF08F570
:1008630018500205198008F51850020519D2AFD0A7
:10087300D022BB0102E722C082C08389828A83BB64
:100883000003E08002E493D083D08222C0E0C0D092
:10089300E8C0E0E5A8D2AFC2C7A2E792AFD0E0F8C4
:1008A300D0D0D0E0326016080808C6C313C618C6F5
:1008B30013C618C613C618C613C6D5E0EA22C3E08A
:1008C300C696F608A3E0C696F608A3E0C696F60811
:1008D300A3E0C696F622C0E0E493A36C7009D0E0CF
:1008E300D0E0D0E0020737A3A3D0E022251810AF51
:1008F30008F518400215198008F51840021519D299
:10090300AF22E76670100809E766700A0809E76610
:1009130070040809E76622E066701008A3E06670B9
:100923000A08A3E066700408A3E06622C3E0960801
:10093300A3E09608A3E09608A3E096A2D265D0337D
:1009430022C3E096F008A3E096F008A3E096F0082F
:10095300A3E096F022E026F008A3E036F008A3E037
:1009630036F008A3E036F022C0E0E8C0E0E58124D9
:10097300FCF8E6A2E7D0E0F8D0E022E647F6080963
:10098300E647F60809E647F60809E647F622E026B1
:10099300F608A3E036F608A3E036F608A3E036F639
:1009A30022E627F60809E637F60809E637F60809C6
:1009B300E637F622E657F60809E657F60809E6573A
:1009C300F60809E657F622E056F608A3E056F608BD
:1009D300A3E056F608A3E056F622E056F008A3E09B
:1009E30056F008A3E056F008A3E056F02270042264
:1009F300600D18C6C333C608C633C6D5E0F4182243
:100A0300E4C396F608E496F608E496F608E496F648
:100A130022C6F4C608C6F4C608C6F4C608C6F4C699
:100A230022C3E7960809E7960809E7960809E796B7
:100A330022C3E09608A3E09608A3E09608A3E096F5
:100A43002275D000758140751801751903000204E1
:100A53009EE0F608A3E0F608A3E0F608A3E0F6227A
:100A6300600C08C6C313C618C613C6D5E0F422E645
:100A7300F008A3E6F008A3E6F008A3E6F022CAC054
:100A8300E0E6F0A308DAFAD0E0FA22E0FAA3E0FB0A
:100A9300A3E0FCA3E0FD22EAF0A3EBF0A3ECF0A3B8
:100AA300EDF022E5C754F84401F5C7790122251872
:100AB300F582E43519F58322C2AF75D69F02000093
:100AC30022120810DADF021208100EE002120810D8
:100AD30043E00212081025E102120810DAE10212C3
:100AE30008102FE4021208107CE5021208101FE61A
:100AF300021208106EE7021208108CE702120810A7
:100B0300CB2900120810002A00120810262A00120E
:100B13000810602A00120810722A00120810C42A52
:100B230000120810252B00120810AF2B001208101A
:100B3300532C001208109B2C00120810D52C001205
:100B43000810F22C00120810172D00120810692D3E
:100B530000120810822D00120810A82D0012081090
:100B6300E32D00120810272E001208104E2E00123B
:100B730008109F2E001208104F2F00120810073084
:100B830000120810CF30001208108F310012081025
:100B9300D33100120810F831001208103B32001252
:100BA3000810883200120810E0330012081066346F
:100BB30000120810843400120810AE34001208101A
:100BC300C83400120810D73400120810E23400129F
:100BD3000810A23500120810FB3500120810BD36AC
:100BE30000120810C5360012081049370012081009
:100BF3008F3700120810D037001208106039001226
:100C03000810183A00120810843A00120810AF3B7B
:100C130000120810D43B001208104A3C00120810BE
:100C2300DC3C001208109C3D00120810BB3D001272
:100C33000810CA3E00120810DC3E001208104C3F98
:100C430000120810653F00120810A140001208109E
:100C53003C4100120810754100120810C1410012F6
:100C63000810DD4200120810264500120810314515
:100C7300001208103C4500120810474500120810E6
:100C83005145001208105C45001208107645001209
:100C930008108045001208108A4500120810954577
:100CA30000120810BD450012081018460012081063
:100CB3002246001208104646001208106A46001227
:100CC3000810C846001208100C47001208102847E5
:100CD300001208109F4700120810D747001208108F
:100CE3002348001208108048001208103A490012E5
:100CF30008101E4B00120810774B00120810A74C67
:100D030000120810CD4C00120810564E00120810A5
:100D1300D25100120810A453001208106D5500128E
:100D230008101A560012081085570012081024588C
:100D330000120810715800120810DB580012081036
:100D4300EA5800120810715B00120810235D0012AC
:100D53000810905D001208106F5E00120810885F83
:100D63000012081005610012081024610012081017
:100D73007961001208107E6200120810A662001248
:100D83000810FE6200120810DD63001208102164CF
:100D9300001208106C6400120810D76400120810C7
:100DA3001866001208107C6600120810CA67001249
:100DB30008102A6A001208105B6A00120810136CEC
:100DC30000120810686C001208106C6D00120810F5
:100DD300096E00120810626E00120810156F0012DF
:100DE3000810B76F00120810577000120810FC703B
:100DF30000120810368601120810758601120810B9
:100E0300BC8801120810068901120810218A0112F8
:100E13000810898A01120810BE8A01120810328C48
:100E230001120810B58E01120810DE8F011208108E
:100E33007490011208107C9901120810119A011282
:100E43000810F89C01120810EB9D01120810599E1E
:100E5300011208109F9F0112081081A001120810AF
:100E630066A20112081077A401120810E1A401126E
:100E73000810B3A501120810E1A5011208109EA6DF
:100E83000112081075A7011208103CA801120810DE
:100E9300E0A80112081009A9011208102BA90112D8
:100EA300081081AB0112081059AC011208109DAC57
:100EB3000112081005AD01120810BDAD0112081092
:100EC300EFAD0112081033AE0112081069AE011222
:100ED3000810B5AE011208100AAF011208100FAFC7
:100EE3000112081062AF0112081087AF0112081037
:100EF30096B001120810FAB0011208106AB101127B
:100F03000810F6B101120810C3B401120810A7B5F6
:100F1300011208102AB70112081060B90112081053
:100F23000EBA01120810BEBA01120810FFBC01125A
:100F33000810A2BD01120810E9BD0112081095BFE7
:100F430001120810A9BF01120810B3BF0112081043
:100F5300DBBF01120810E7BF0112081006C001121F
:100F63000810FAC10112081055C2011208109FC2DD
:100F730001120810A7C301120810FEC301120810C2
:100F83004DC50112081091C50112081039C601128E
:100F930008101CC701120810C7C70112081013C993
:100FA3000112081011CA01120810B7CA0112081061
:100FB30047CB011208105ECB0112081095CB01122A
:100FC30008109FCB01120810AACB01120810C8CB3E
:100FD300011208100CCC0112081069CC0112081080
:100FE3008ECC01120810A8CC0112081034CD0112C6
:100FF300081051CE01120810BECE01120810A5CF61
:1010030001120810CCCF0112081040D001120810B1
:10101300BBD001120810BFD101120810B5D20112C2
:10102300081064D30112081077D40112081013D5E5
:1010330001120810A0D5011208107ED60112081063
:10104300B6D6011208100ED701120810D7D7011215
:101053000810F8D7011208107FD801120810A3D87E
:1010630001120810C5D8011208100ED90112081078
:1010730024DB011208100BDC01120810BCDC011286
:101083000810F2DE0112081042DF0112081082DF9D
:1010930001120810C4DF0112081020E00112081029
:1010A3004EE00112081072E001120810C5E00112AF
:1010B3000810F3E0011208102CE10112081081E17D
:1010C30001120810E7E1011208103BE301120810B6
:1010D3005EE501120810CBE501120810F4E50112D8
:1010E30008107FE601120810E6E60112081031E746
:1010F3000112081055E70112081079E701120810D0
:10110300D4E701120810EFE701120810A8E8011252
:101113000810648F04120810A38F0412081078803B
:1011230002120810BE80021208109E8102120810DB
:10113300A08202120810A383021208102F85021244
:1011430008108D85021208104A860212081068875B
:1011530002120810D987021208101588021208100B
:101163006388021208106D8802120810B1880212F7
:1011730008100D8902120810A88902120810258A86
:1011830002120810F48A021208108D8B0212081042
:10119300AD8B02120810E38B02120810148C02129A
:1011A3000810D58C02120810E58C02120810398D34
:1011B30002120810548D02120810668D02120810D4
:1011C3006F8D02120810C98D02120810258E0212AB
:1011D3000810718E021208108C8E02120810BD8E38
:1011E30002120810DA8E02120810E68E021208109C
:1011F3005A9002120810739002120810DA90021229
:101203000810ED9002120810FB9002120810AF9123
:1012130002120810939202120810999302120810F6
:101223002394021208102D94021208109A940212A9
:101233000810B19402120810E394021208101C95CE
:1012430002120810469502120810A7950212081000
:10125300C79502120810E595021208102B96021288
:1012630008105197021208109E9702120810CD978A
:10127300021208104398021208106B980212081009
:10128300A49802120810B298021208100A990212C6
:101293000810599902120810989902120810C89957
:1012A30002120810F49902120810FF990212081092
:1012B3001D9A02120810DF9A02120810E99A02120C
:1012C30008102A9B021208107F9B02120810939B9E
:1012D30002120810A19C02120810B49C02120810FA
:1012E300C99C021208106B9D02120810EE9D021297
:1012F3000810AC9E02120810B79E02120810E39F5A
:1013030002120810FF9F0212081051A002120810C7
:1013130090A002120810A5A00212081007A1021241
:10132300081096A102120810E1A10212081032A4BB
:1013330002120810B0A40212081025A50212081008
:1013430047A7021208105FA70212081062A7021231
:1013530008106EA70212081082A7021208108AA7AB
:1013630002120810BDA7021208106DA8021208107D
:10137300E3A80212081056A9021208100AAA0212C0
:101383000810BFAA02120810DEAA0212081084ABCA
:1013930002120810AFAB02120810B2AB021208100F
:1013A3001CAC0212081044AD021208101CAE02124B
:1013B3000810A7AE02120810C0AF021208107DB0C9
:1013C30002120810B6B002120810E7B00212081099
:1013D300A5B102120810D5B102120810B0B2021260
:1013E300081049B302120810D4B30212081085B4CE
:1013F3000212081008B5021208103AB502120810BA
:101403007BB5021208106CA603120810D1A60312B2
:1014130008100EA7031208105DA70312081073A982
:101423000312081056AB03120810C0AE03120810C3
:10143300FBAE031208101DAF0312081080AF031296
:101443000810B4AF03120810D7AF0312081004B08A
:101453000312081060B003120810A79A03120810B1
:10146300259B0312081089D602120810C79B03128A
:1014730008103A9D03120810569D031208109B9DF5
:1014830003120810299E03120810829E03120810EB
:10149300AF9F03120810C1A0031208101EA103126C
:1014A30008108AA103120810EBA1031208102CA242
:1014B30003120810D9A203120810EBA30312081099
:1014C300BEDF0212081061A403120810A8A40312BD
:1014D30008103AA503120810F5A5031208104E8848
:1014E30004120810C98804120810D48804120810C2
:1014F300CCF502120810D6F50212081022F60212D9
:10150300081090F602120810B1F60212081061F7E3
:1015130002120810F5F902120810FEF9021208105F
:1015230051FA021208107AFA02120810E1FA0212B2
:10153300081072FB02120810B4FB02120810FEFB23
:10154300021208105DFC0212081089FC0212081036
:101553001AFD0212081059FD0212081098FD02121A
:101563000810CDFD02120810DFFD02120810F1FD74
:101573000212081010FE0212081019FE02120810BF
:10158300CFFE021208100FFF021208101EFF0312F3
:101593000810ECFC0312081022FD031208106BFD67
:1015A30003120810BBFE03120810E2E80112081030
:1015B30021EA011208105DEA011208101CEC011265
:1015C300081045EC01120810D8EE011208101CEFA8
:1015D30001120810A5F0011208103DF101120810C4
:1015E300A5F10112081046F20112081088F2011247
:1015F3000810C8F20112081053F401120810C3F5C1
:1016030001120810E8F70112081016F80112081069
:101613003DF80112081046F801120810CDF8011226
:101623000810EBFB01120810A19004120810B790E8
:1016330004120810198F04120810DDEE03120810AB
:10164300F0EE031208108DEF03120810C8EF031217
:101653000810E3EF0312081008F0031208104DF00E
:10166300031208107EF003120810AFF003120810E3
:1016730035F2031208100887041208103E8704127B
:1016830008105A87041208109C8704120810AC87AC
:10169300041208104188041208104B880412081021
:1016A30042F203120810FFF203120810A1F303120F
:1016B3000810D9F30312081075F40312081022F569
:1016C30003120810B3E7021208100EE80212081002
:1016D30007E902120810DEE902120810F3E9021208
:1016E30008103DEA021208109AEA02120810ADEA45
:1016F30002120810F7EA021208100BEB021208108C
:101703003DEB021208103BEC0212081084EC0212AB
:10171300081093EC02120810E2EC02120810F8EC25
:10172300021208100FED021208103EED021208100B
:1017330057ED02120810F0ED021208104AEE0212E1
:10174300081098EE02120810BAEE0212081031F1D6
:101753000212081066F102120810F9F102120810C1
:1017630071F2021208107DF202120810B9F202128D
:1017730008100FF302120810FEF30212081023F4EC
:10178300021208102DF4021208103CF40212081081
:10179300C5F402120810E0F40212081002F5021256
:1017A30008103DF5021208104CF50212081057F507
:1017B3000212081093F502120810CC8E04120810BE
:1017C300E48E041208109AC203120810E9C203122D
:1017D30008108BC40312081049C60312081091C6DF
:1017E30003120810B3C703120810E4C80312081049
:1017F30006C90312081062C903120810E4C90312D0
:101803000810008003120810218003120810AB8017
:1018130003120810308103120810AC810312081060
:10182300158203120810618203120810E08203126A
:101833000810728303120810FE83031208104084F9
:1018430003120810AC88031208102C8A0312081024
:10185300D68A03120810AF8B03120810DE8B031213
:101863000810C98D03120810499003120810029141
:10187300031208101F920312081076950312081022
:10188300869503120810E796031208107B9703123C
:101893000810A49803120810959903120810179AB8
:1018A3000312081048710012081002720012081087
:1018B3007472001208101073001208108073001263
:1018C30008103976001208101077001208107D777F
:1018D30000120810FA7800120810C47900120810D8
:1018E300347A00120810FD7B00120810107D0012DC
:1018F3000810A97D001208106F7E0012081031CA6B
:101903000312081085CA03120810D1CA0312081063
:101913001CCB031208105CCB03120810ACCB0312D0
:10192300081022CD03120810D5CD0312081018CECB
:10193300031208102ECE0312081086CE03120810CD
:10194300D4CE03120810FBCE0312081066CF031285
:10195300081069D003120810158204120810468279
:10196300041208100083041208106683041208107E
:1019730068E803120810F4E90312081054900412E3
:101983000810659004120810EF8304120810FD83F9
:1019930004120810DF9004120810E58D04120810D9
:1019A300F58D04120810108E04120810718E0412A3
:1019B3000810E38C04120810688D04120810CC8DF3
:1019C30004120810D18B04120810F38B04120810B0
:1019D3005D8C04120810688C04120810AC8C04127D
:1019E3000810E8B903120810F6B90312081037BA41
:1019F3000312081058BA03120810D5BA03120810BC
:101A0300D5BB03120810F7BB0312081063BC031203
:101A130008107EBC0312081099BC03120810A3BC63
:101A230003120810ADBC03120810C0BC0312081047
:101A3300D9BC0312081075BD0312081031BE03127E
:101A43000810A8BE0312081022BF031208106EBFAD
:101A53000312081014C003120810F0C00312081078
:101A63006CFC011208107AFC01120810F4FC01123C
:101A73000810D8FD0112081091FF011208107F9081
:101A8300041208101AD10312081086D10312081089
:101A930045D2031208104FD303120810A8D403121F
:101AA300081003D50312081058D50312081061D586
:101AB3000312081073D503120810DDD503120810A2
:101AC300F1D503120810B8DA031208100DDB031264
:101AD300081009DD031208103BDD031208105DDD59
:101AE3000312081076DD031208108FDD03120810AD
:101AF30099DE0312081034DF03120810A7850412BD
:101B03000810CB8504120810E48504120810178608
:101B1300041208104886041208107686041208106E
:101B2300D88604120810E78604120810F1860412FE
:101B33000810FE860412081099F503120810BFF569
:101B430003120810FCF5031208100BF60312081019
:101B53002AF60312081092F6031208109BF60312DA
:101B63000810FAF6031208101EF703120810DDF727
:101B730003120810EAF703120810FBF70312081008
:101B8300C37F00120810E07F00120810ABDF0312BE
:101B9300081009E10312081016E10312081029E1E5
:101BA3000312081048E1031208105EE10312081043
:101BB30072E103120810E7E1031208104CE203126A
:101BC3000810FCE203120810D1E303120810E1E34A
:101BD30003120810F0E3031208103FFF021208106B
:101BE30063FF021208108BFF02120810B3FF0212E8
:101BF300081029F80312081050F80312081071F89E
:101C030003120810D6F8031208108FFA03120810F3
:101C1300A8FA03120810B4FA03120810C8FA031240
:101C23000810E6FA03120810F0FA03120810FAFA81
:101C3300031208100DFB0312081060FB03120810B7
:101C430099FB03120810C8FB0312081016FC0312B9
:101C5300081065FC0312081080FC031208108AFCAC
:101C6300031208109BFC03120810E1FC0312081076
:101C73007B8E04120810ACB003120810D6B0031206
:101C83000810F2B00312081005B1031208101BB1BB
:101C93000312081078B103120810ABB10312081035
:101CA300E7B5031208100DB70312081040B703126B
:101CB30008108CB703120810B8B803120810E0B864
:101CC30003120810F5B80312081005B9031208101F
:101CD30049B903120810AAB903120810BAB90312BA
:101CE30008108B8904120810A68904120810CF89E2
:101CF30004120810E989041208100E8A041208104D
:101D03002D8A04120810458A04120810738A0412DB
:101D130008108D8A04120810AD8F041208105DEBB1
:101D23000312081064EB0312081070EC031208107E
:101D3300A0EC03120810C6EC03120810E9EC03121E
:101D430008100BED0312081045ED03120810ABED5C
:101D530003120810E4ED0312081030EE031208100A
:101D63005DEE031208107DEE0312081000800412CA
:101D7300081018800412081033810412081012820C
:101D830004120810BE8A04120810308B04120810C3
:101D93006E8B04120810AF8B0412081029E403128F
:101DA300081048E40312081097E403120810B3E480
:101DB30003120810E4E403120810F1E403120810FC
:101DC300FEE403120810EAE50312081028E60312E2
:101DD300081038E70312081043E70312081055E709
:101DE300031208105EE70312081068E703120810D5
:101DF300FBD50312081040DA031208104EDA03125F
:101E03000810279004120810F18F04120810D8FF4D
:101E130002120810C19004120810DDD50212081036
:101E230023D402120810D3D1021208105AD102127D
:101E3300081001D10212081091D00212081068D0C4
:101E43000212081048CE0212081014CE0212081013
:101E5300E1CD02120810C5CD02120810DECC021229
:101E6300081096CC02120810E1CA0212081061CAC7
:101E7300021208105ECA021208105BC9021208108F
:101E830029C90212081066C80212081091C602126C
:101E9300081022C602120810F4C50212081042DF0D
:101EA30002120810F9DE02120810B1DE0212081045
:101EB300FFDD0212081071DD02120810F1C50212D3
:101EC3000810DEC50212081089C50212081064DD6D
:101ED3000212081078C5021208106AC40212081010
:101EE30034C402120810E2C3021208105EDA0212AE
:101EF300081016A40312081083C30212081052C359
:101F0300021208101AC002120810DABF02120810D7
:101F1300CEBF021208102EBF021208106EBE0212AC
:101F23000810F0BB0212081081B9021208103FB961
:101F33000212081013B802120810C8B702120810D0
:101F430004B702120810D7B6021208101AB602120A
:101F53000810B0B502120810EAB502120810C0D773
:101F6300021208105B9B0300000080FBE473000077
:101F7300000000000000000000000000000010103E
:101F83001010101000003030000000142850000022
:101F930000000000000000000000002828FC284882
:101FA30050FC5050000000001038545430181454A2
:101FB3005438100000000044A8A8B0541A2A2A4438
:101FC300000000000020505060ACA898927C0000F4
:101FD30000606020C000000000000000000000045A
:101FE300080810101010101008080400000040200A
:101FF300100804081020400000000000001010D654
:102003003838D61010000000000000101010FE1029
:10201300101000000000000000000000000000009D
:10202300606020C0000000000000FC000000000011
:1020330000000000000000000000000060600000DD
:1020430000020404040808101020202040000000AF
:1020530000304884848484844830000000000010E9
:10206300701010101010107C000000000038444461
:1020730004081020447C0000000000384444180485
:102083000444443800000000080818284848887CA5
:10209300081C00000000007C40407844044444389D
:1020A30000000000003C4480B8C4848484780000AD
:1020B3000000007C444808101010101000000000BD
:1020C3000078848448788484847800000000007851
:1020D3008484848C740488F00000000000000030C5
:1020E300300000003030000000000000000010004D
:1020F30000000010102000000408102040201008E9
:10210300040000000000000000FC0000FC000000D0
:1021130000000000402010080408102040000000C8
:102123000000788484840810100030300000000020
:102133000038449AAAAAAAB4423C00000000001046
:1021430010282828384444EE0000000000F84444D6
:102153007844444444F800000000003C44848080F8
:10216300808044380000000000F048444444444464
:1021730048F00000000000FC44404878484044FC1C
:102183000000000000FC42404878484040E0000066
:102193000000003C448480808E84443800000000AA
:1021A30000EE4444447C444444EE00000000007CC0
:1021B300101010101010107C00000000007C101094
:1021C30010101010101090E0000000EE4448507002
:1021D300484844EE0000000000E0404040404040DA
:1021E30044FC0000000000EE6C6C6C54545454D654
:1021F3000000000000EE64645454544C4CE40000AE
:102203000000003048848484848448300000000047
:1022130000F844444478404040E0000000000030AF
:102223004884848484B448380C00000000F8444493
:102233007850484844E600000000003C4440201821
:10224300040444780000000000FE921010101010E7
:1022530010380000000000EE444444444444443831
:102263000000000000EE4444282828281010000035
:10227300000000D6545454546C2828280000000051
:1022830000EE44282810282844EE0000000000EE49
:10229300442828101010103800000000007C880823
:1022A3001020204044FC0000001C101010101010DF
:1022B300101010101C0000701010101010101010CF
:1022C300101070000070101010101010101010106B
:1022D3007000001028000000000000000000000053
:1022E30000000000000000000000000000FE00608D
:1022F3006020C0000000000000000000000000009B
:10230300000038441C24443E0000000000C040404C
:1023130078444444447800000000000000003C443A
:102323004040443800000000000C04043C44444492
:10233300443E000000000000000038447C40443864
:1023430000000000001C2420F8202020207800003A
:102353000000000000003C4848304078443800004A
:1023630000C040405864444444EE000000000010A4
:10237300000070101010107C000000000008000026
:102383003808080808080870000000C040405C488E
:10239300507048EC00000000007010101010101076
:1023A300107C0000000000000000F854545454D680
:1023B3000000000000000000D864444444EE000024
:1023C300000000000000384444444438000000008A
:1023D30000000000F8444444447840E0000000005A
:1023E30000003C444444443C040E00000000000050
:1023F300EC30202020F800000000000000003C44E6
:102403003008447800000000000010107C10101009
:10241300100C0000000000000000CC444444443E83
:102423000000000000000000EE44282828100000EF
:10243300000000000000D654545428280000000077
:1024430000000000DC48303048EC000000000000D1
:102453000000EE442828101020E0000000000000D7
:102463007C481010247C0000101010101010101065
:102473001010101010108F0001004D06870001008E
:102483004C0624000200CC1025000200CE102600CA
:102493000200D01027000200D21028000100D4103F
:1024A30029000100D51084000400D6108600010025
:1024B300DA102A000100DB102B000100DC102C00D5
:1024C3000100DF102D00080037062E000100E01088
:1024D3002F000100E11030000100E2103100010083
:1024E300E310320001003F063300010040063400D0
:1024F3000100E41036000100410638000100E51038
:1025030039000100DE1083000200EF1063000100B8
:102513004B0664000100340665000100DD106D0008
:102523000100EE106E000200350643000100E610C4
:1025330044000200E71045000100E91046000200D4
:10254300EA1047000800430648000100EC104B0066
:102553000100ED1004000100F110A1000100F410CE
:1025630037000100F31088000100F2103C00010065
:1025730042060000000000000001363601010001A0
:102583000201000103010001040106060502000027
:10259300070100340801000F090401010D0100FFC8
:1025A3000E08000017020000190100FF1A010001C4
:1025B3001B0100FE1C0100081D0200001F01000199
:1025C30020010001210200002301000F240200006A
:1025D3002601000127010008280200FF2A01000745
:1025E3002B0102402C0100002D0100012E010001EE
:1025F3002F0100FF30010B1C310800003A010008D5
:102603003B01000F2F0100000101710101010101D4
:102613001101010131010101010180011001610179
:102623003B00140063017301720162014301000165
:10263300130106013D0135000401120100010001EF
:102643000001000104010401330133013C01440191
:1026530032013600000100016501000135008101EE
:1026630000010501820183010001030271023001AF
:1026730060021102700201020202020280021002D1
:1026830061023A0041006302730272026202430272
:1026930000021302380000020002040212020002C8
:1026A30000020002000204020402370037003C0269
:1026B30044020002390000020002650200023502F2
:1026C30081020002050282028302000201037103F8
:1026D30001030103010301030103220302030103B5
:1026E30010030003000300030003000300030003BF
:1026F300420300032403060300030003040312033D
:102703002503230325032303040304030003000316
:1027130000034403000300032303000365032100B4
:1027230035038103000305030003000300030300D3
:102733007100300160001100700031022003500469
:102743008000100061000000140063007300720039
:1027530062004300000013000600000000000400B4
:102763001200000000000000000004000400370015
:1027730037003C0244000000000000000000650038
:102783000000350081000000050000008300000008
:1027930003047104020460041104700402040204BB
:1027A30001040204100461040004140463047304A8
:1027B30072046204430400041304060400040004C6
:1027C300040412040004000400040004510464001F
:1027D3000004000400044404000400040004000492
:1027E30065040004350481046400050400048304C3
:1027F3000004C9EEDBDACAD0B0B2C1AAB5C2BFC603
:10280300BCBCD3C3BBA7B5C7C2BCD5CABAC5C3DC9E
:10281300C2EBC8B7B6A8C8A1CFFBD7A8D2B5D7A873
:10282300D7A2CEDECFDFCDA8D1B6B3CFD0C5C1A25C
:10283300D7E3B4B4D0C2D6C2D4B6C7BFB4F3D4AD11
:10284300A3BA0036000100060000000F00000000DC
:1028530000000000000000000003FFFF000004036D
:10286300FFFF0000FFFF0FF4010005C40403200075
:102873000100030B000000000000000003010F0033
:1028830000BC1813005C180100BC180200201803D8
:1028930000261804002C180500321806003E18FF05
:1028A300FF0000013C0E066C0E08660E0B780E103E
:1028B300B80D02420E055A0E07480E0C1E0E0D30BF
:1028C3000EFF000003EAF5E5D5D5C5B5A5959585B9
:1028D30085757565655555454535352525151505A5
:1028E3005C128C126212681286127A12741292129D
:1028F30098129E12AA126E125612501200160F0050
:10290300000B150B020002220F320000064613587B
:10291300135E132612641320122C1260115A11969F
:10292300119C1190114811A013BE13C413A613B226
:1029330013AC130C0E020B040B0A0708000F000163
:1029430019161816161523030000034948424D189B
:102953001725050200383C3E363B3B352B432C30D4
:102963003017181921301B1D1F303030161819204D
:10297300231A1C1E308012A412B813B012B612947C
:10298300136A1370137C137613020402010101010D
:1029930009026C1172116611A21178118A1100BE1D
:1029A300040A0E0004007F00E8030C002800000066
:1029B3000000090308100C0A03080900040001FFC2
:1029C3001E1E0C050408100F74F612037B74FF120D
:1029D30008EF851882851983E4F0858208858309C9
:1029E3007808120848750801750900780812084824
:1029F300122A1F740412085B740102413474F61224
:102A0300037B8C088D09780812084875080B750933
:102A1300007808120848122A1F024132122A48126B
:102A2300161C2274F612037B8C088D097808120891
:102A33004875080B7509007808120848122A4812CD
:102A43001622024132EA75F00BA4FAA8F075F00BD6
:102A5300EBA428FBEAFCEBFD7A237B0022C082C0B7
:102A6300838A828B83E0D2E7F0121784023F28C067
:102A730082C0837900122FEE1260D4C082C083908B
:102A83000334124E52D083D082C3E09CA3E09D5006
:102A93000C1267A8FAA3E0122AA3600109023F28D7
:102AA300FBEA75F00BA4FAA8F075F00BEBA428FB76
:102AB300900336E02AF8A3E03B8882F583E0540FC5
:102AC3002274F712037B8908122FEE123094ACF0B4
:102AD30075F00BE9A42CF9900336E028FEA3E03946
:102AE300FF7401650860067402650870208A828B92
:102AF3008312308012412C74026508701B122F3F21
:102B03001230C770138E828F83E4F0800BEA2403A4
:102B1300FCEB12306212306EEEFAEFFB120B120274
:102B23003F6074F412037B1270CF79008E828F831F
:102B3300E06076890A890B8065E50A75F00BA4FAD3
:102B4300A8F075F00BE50B122AB07046E50A75F094
:102B53000BA4F8AAF075F00BE50B1230A68E828F4A
:102B630083E0850882850983123188850882850977
:102B730083A312412CEE2403FCEF12306B123F2F80
:102B8300125B4EAA08AB09120B127901900334129F
:102B9300555BE50A2401F50AE50B3400F50B122F0A
:102BA30047E50A9AE50B9B40900242D874F512035D
:102BB3007BEAFEEBFF740B120AB1123F34750A0174
:102BC300EC4D602BEC1270EBED1260D412412479C2
:102BD30001120B1EE5084509606F8508828509838C
:102BE300A31270D97902AA08AB09120B1E805AE509
:102BF300084509602B1260D812479A123F301230F1
:102C0300B1700CEEFAEFFB120B24E9F50A80CBEE60
:102C13002403FA122FE970317903EEFAEFFB80CA2D
:102C23008E828F83A3E064FE7003A3E0F4700BEE47
:102C330024030A0A0A122FE9700CEEFAEFFB120BB7
:102C430024E9F50A8003750A00A90A7F03020595A2
:102C530074F712037B900334124093EA4B602FEA1C
:102C630075F00BA4FAA8F075F00BEBA428FBEAFEB1
:102C7300EBFF12159E9003361240939003361253C6
:102C8300A06012EEFCEFFD7900121502800790039D
:102C930036E4F0A3F0023F6074F612037BE4F50818
:102CA300F5097808120848900334124E52EC75F077
:102CB3000BA4FCA8F075F00BEDA428FD7A237B0090
:102CC300121616740212085BE9FE6003120B3C0233
:102CD30062E774F712037B7E007F00800AEEFAEF4F
:102CE300FB120B00123B6D122D5D40F1023F60742D
:102CF300F712037B7E007F008012122FCCFCA3E02F
:102D030039FDEEFAEFFB120B0C123B6D122D5D40F9
:102D1300E9023F6074F712037B7E007F008033EE8D
:102D2300F8EFF9E875F00BA4F8AAF075F00BE9A435
:102D33002AF990033612586988828983E0A2E75002
:102D43000EC2E7F0AC82AD83EEFAEFFB120B061274
:102D53003B6D122D5D40C8023F60900334124B0A55
:102D6300C3EE98EF9922C082C083EC4D6005121D1B
:102D73009680097C087D007900121502023F2874B1
:102D8300F612037B7900EA4B601878008808126416
:102D93001BEB1267A460047901780808E8C3940860
:102DA30040EA02413774F712037B74F31208EFEC25
:102DB300FEEDFF851882851983E4F004120AB1EA57
:102DC300F0A3EB1258D47403120AB1AC82AD83EEB4
:102DD300FAEFFB120B4EEEFAEFFB120B54023F5BC2
:102DE30074F712037B74F31208EFECFEEDFF851802
:102DF30082851983E4F0EAFCEBFD7403120AB11235
:102E030031817401120AB11241208E828F831241E3
:102E13002C74FE68700374FF696004790180027981
:102E230000023F5B74F712037BEAFEEBFF122E8571
:102E33007014122E908E828F83E0F4F88A828B8333
:102E4300E058F0120B12A908023F6074F712037BDB
:102E5300EAFEEBFF7508008E828F83E06022122E5C
:102E630085701D122E908A828B83E08F838E82F869
:102E7300E058700CE0F88A828B83E048F0120B1262
:102E830080C4120B18E9F50874016508221270E476
:102E9300123098122FDAFAA3E039FB2274F41203EA
:102EA3007B8A088B097C007D00122F3F12306E1243
:102EB3002FFF1270D67900850882850983A3E06409
:102EC300FE7003A3E0F460717E007F008062EEFA7F
:102ED300EF122AA36057EEFAEFFBEA75F00BA4FAA0
:102EE300A8F075F00BEBA428FB900336E02AF50A53
:102EF300A3E03BF50B850882850983A312581A8545
:102F03000A82850B83A3E06A7003A3E06B701EE55E
:102F13000A2403FAE50B122FEA700AE50A2403FCDC
:102F2300E50B12306B122FF379011260EA123B6D3D
:102F3300122F47EE9AEF9B40950242D8EA24030AE8
:102F43000A0AEB22900334125CC1C32274F3120306
:102F53007B8A088B098A828B83A31270D9122FEE86
:102F63001270D6750C00122F3F122FEA70547E0098
:102F73007F008049122FCCFAA3E0398A82F583E0DF
:102F8300540F6036122FCCF50AA3E039F50BE50A8E
:102F93002403FCE50B1230753400FB121D90E96429
:102FA300017017850A82850B83A3125D82A31241E8
:102FB3002C122FF3750C011260EA123B6D122D5D7A
:102FC30040B2A90C7F05020595EEF8EFF9E875F01C
:102FD3000BA4F8122FDA22AAF075F00BE9A42AF950
:102FE300900336E02822EF1230C1221270EAEB225E
:102FF300122FFF1260E5EEF0A3EFF022E508127046
:10300300EBE5092274F512037BEAFEEBFF8E828F58
:1030130083A31270D97C007D00EE24030A0A0AEF11
:1030230012306EEEFAEFFB120B18E9F50A74016524
:103033000A70291270E4123094AAF075F00BE912A9
:1030430030A6850882F5831230801230B1700DE509
:10305300082403FCE50912306212306E022C4C3452
:1030630000FDEE2403FAEF221230753400FB120B3D
:103073004E223400FDE5082403FAE50922A31230A9
:10308300852212308922E0F8A3E0F98E828F83A390
:1030930022123098223400F583124B0EE875F00BA0
:1030A300A4F822122FE0F508A3E039F50922E8F08D
:1030B300A3E9F0E5082403FAE5091230C12212302E
:1030C300C76401223400FB120B54E92274F3120388
:1030D3007B74E61208EF1270CF750C01750800754A
:1030E3000900750A00750B00851882851983E4F0C1
:1030F300EE2403FCEF3400FD7403120AB112318194
:10310300E964017023740B120AB112412474011291
:103113000AB112581E7003A3E069605185188285B5
:103123001983858208858309740D120AB1E412316B
:1031330088740E120AB112412C740D120AB1AA82BC
:10314300AB83120B72E96401700B740D120AB18523
:10315300820A85830B780A120848AC08AD09EEFA97
:10316300EFFB120B2A740212085BE9F50CEEFAEF7F
:10317300FB120B6CA90C741A12085B022FC71234D2
:1031830054120B782212408E124B0A22C082C08343
:1031930078007900800312327F122F47E89AE99B67
:1031A3005029E8FAE9FBEA75F00BA4FAACF075F0E4
:1031B3000BEBA42CFB900336E02AFCA3E03B8C82B0
:1031C300F583E0540F70CF790080027901023F2824
:1031D300C082C0839004F6124B60EC75F012A4FC1D
:1031E300A8F075F012EDA428FD79FF7A2F7B0B125E
:1031F3001502023F2874F712037BE9FEEAFF7A0007
:103203007B00780079008028E8FCE9FDEC75F0127A
:10321300A4FC85F00875F012EDA42508123694C3BA
:103223009E400AE0FCEFC39C4003123A4212327FF5
:1032330012368840D3023F60C082C0837800790091
:10324300800312327F123273501F123698F470F2D9
:10325300E875F012A4F8AAF075F012E9A42AF9743B
:103263002F28FA740B39FB80047A007B00023F2875
:103273009004F612391AC3E89AE99B22E82401085C
:10328300E93400F92274F012037B74F31208EF8A15
:103293000A8B0B8C0C8D0D8908EC450D6016AA0C5E
:1032A300AB0D120BC68A0E8B0FAE0EAF0FEE4F6037
:1032B30003023346120B9C8A0E8B0FA80EA90FE84C
:1032C300FEE9FFE849607C9029B31233A8602274B9
:1032D30003650860067404650870167A047903129E
:1032E3000B969029B31233BF40077A007B00023359
:1032F300A59029B11233A8601B7401650860067498
:10330300026508700F7A027901120B969029B112A7
:1033130033BF50D68518828519837401F0120AB120
:10332300125B4EAC0CAD0D7403120AB112344D7422
:103333000B120AB1123F3C12450EE4125B36121017
:10334300A08004EE4F604A780074FF2508C39404FC
:10335300500278048E828F83125B4E8E828F83A3FA
:10336300A3A3A3E508F0E88E828F83A3A3A3A3A35B
:10337300125B5612022A1239378E828F83A3A3A3BC
:10338300A3A3A3A3F012392E120A8E1260CE120A3F
:103393009A1233AD400590108BE4F0120F7AEEFAD7
:1033A300EFFB024B14125C7049227A047900120B72
:1033B300969004F612678AEA98EB99221233D8752D
:1033C30083047582F6E493C398F8A3E49399F9C34D
:1033D300EA98EB9922E493F8740193F92274F212B8
:1033E300037B74F31208EF8A088B09ECFEEDFF757B
:1033F3000A00EEFAEFFB120BC68A0C8B0DA80CA980
:103403000DE849603E88828983E065087004A3E083
:103413006509602F88828983A3A3A3A3E0C39405CE
:103423005021125F7C8518828519837401F0120A7A
:10343300B1125F80EEFCEFFD7403120AB112344D3A
:10344300750A01A90A740D025612123454120B8420
:1034530022AA82AB83120B4E851882851983AA8216
:10346300AB832274F612037B1234A2600FA3A3A3CF
:10347300A3E014C39404500479018002790002414B
:103483003774F612037B1234A2600FA3A3A3A3E045
:1034930014C3940250047901800279000241371267
:1034A3000BC08A828B83E58245832274F612037BE9
:1034B3001234A2600BA3A3A3A3E0700479018002DA
:1034C3007900024137C082C083EAFCEBFD7A007BBE
:1034D30000023F25C082C0837C007D00023F25742B
:1034E300F412037B74F31208EFEAFEEBFF8C0A8DF0
:1034F3000BC3EC94F8ED94FF4007EE4F70030235D5
:103503009B750800750900802E85188285198374C0
:1035130001F0123B95120AB1123BA360137403121C
:103523000AB1AC82AD83EEFAEFFB121D90E970494C
:10353300E50824011237349004F6E4125C78E508B8
:1035430098E509995052E50875F012A4F8AAF075A8
:10355300F012E509A42AF91267BD60D4EE4F70A9F1
:1035630074FF650A700474FF650B60C4123B8565C4
:103573000A7004A3E0650B70B7E50875F012A4F5B3
:1035830008A8F075F012E509A428F509742F250899
:10359300FA740B3509FB80047A007B000242D37472
:1035A300F412037B74F31208EF750800120BC68A3A
:1035B3000A8B0BAE0AAF0BEE4F602A851882851972
:1035C300837401124088F8A3E0F9740B120AB11254
:1035D30041B1120B667C127D0079FFEEFAEFFB120C
:1035E30015027508011233AD500990108B7401F068
:1035F300120F7AA9080242D374F712037BE9FE740F
:10360300FE6A700374FF6B780079007005805212B4
:10361300327F123688504AE8FCE9FDEC75F012A4BB
:10362300FCAFF075F012EDA42F123694F460E0E8CD
:10363300FCE9FDEC75F012A4FC75F012EDA42FFD6E
:10364300742F2CF582740B3DF583E06A7003A3E0BD
:103653006B70BC800912369814C39404401712325D
:103663007F1232735018EE70EC12369864016005C5
:10367300E0640370E9123B76FAA3E0FB80047AFE70
:103683007BFF023F609004F6124B64C3E89CE99D04
:1036930022123A7722E8FAE9FBEA75F012A4FAACAF
:1036A300F075F012EBA42CFB74332AF582740B3BF8
:1036B300F583E022120BD8023F28C082C083790130
:1036C30080F274F012037B8A0A8B0B7A047901125D
:1036D3000B968A0C8B0DEA450D603EEAC333FAEB79
:1036E30033FB12159E8A088B09AE08AF09EE4F60B3
:1036F300237AFE7BFF120BDE74FE6A700374FF6B8A
:10370300601B850882850983124093E50824021211
:10371300373480E1750C0080047E007F00850A82C7
:10372300850B83E50CF0EEFAEFFB024B19E5082459
:1037330007F508E5093400F509229004F6124B64F5
:10374300C3EA9CEB9D2274F612037BE4F508F509AA
:1037530078081208489004F6E493F508740193F589
:1037630009740378081209F01237801216167402CE
:1037730012085BE9FE6003120BF00262E7E508241E
:1037830002FCE5093400FD7A227B002274F6120361
:103793007B74FE1208EF851882851983E4F0A31267
:1037A3004112858208858309780812084875080242
:1037B30075090078081208487C007D007A227B0096
:1037C30012161C740412085B740202413474F11261
:1037D300037B74DF1208EF851882851983858208BD
:1037E3008583097808120848750802750900780866
:1037F3001208487C007D007A227B00121622740492
:1038030012085BE960030239089004F612391A12B0
:10381300411AC3EA98EB995003023908750800026C
:1038230038FD740F120AB185820A85830B780A1258
:103833000848750A08750B00780A12084885080AB3
:103843007403780A1209F0E50A2402FCE50B123727
:1038530087121622740412085BE960030238FB74B2
:1038630011120AB1E0F47003A3E0F470030238FB11
:103873007402120AB17401F07411120AB1124120D8
:10388300740D120AB112412C7402120AB1AA82AB4E
:1038930083120B7EE96061900375124E52740F120E
:1038A3000AB112581A1210A0E50875F012A4F8A96B
:1038B300F0742F28FE740B39FF740F120AB1A9821A
:1038C300AA83890C8A0D750E00780C1208447C08B3
:1038D30012392212085B125B5B12022A1239371269
:1038E300392E120A8E1260CE120A9A1233AD400597
:1038F30090108BE4F0120F7A050885080A12677E90
:103903005003023825851882851983E0F974211242
:10391300085B7F07020595E493FA740193FB227D0C
:1039230000EEFAEFFB1214F67403221260DFE4F0E8
:1039330090861F22E88E828F83A3A3A3A3A3A3A3AE
:10394300A31239597401123959A3F0EE24101260ED
:10395300E2E4F0A3F02212451AA3A3A32274F41203
:10396300037B74FE1208EF851882851983E4F0A3A4
:10397300F0FE8067EEF8EFF9E875F012A4F8AAF00C
:1039830075F012E9A42AF9742F28F50A740B39F596
:103993000B780A1208487508087509007808120898
:1039A300488E088F09740378081209F012378012C1
:1039B300161C740412085B850A82850B83A3A3A3D8
:1039C300A3E0F4600F851882851983E02401F0A336
:1039D300E03400F0EE24010EEF3400FF9004F61201
:1039E3006D644090851882851983858208858309D3
:1039F3007808120848750802750900780812084803
:103A03007C007D007A227B0012161C740412085B72
:103A130074020242D5C082C0837A007B00800419FD
:103A2300123A4212373D5010123A61C3940550F0D6
:103A3300E970EC123A4B80047A007B00023F28EADB
:103A430024010AEB3400FB22EA75F012A4FA75F0A4
:103A530012EBA428FB742F2AFA740B3BFB22EAFC1B
:103A6300EBFDEC75F012A4FCA8F075F012EDA428A0
:103A7300123A7722FD74332CF582740B3DF583E003
:103A83002274F712037B74F31208EF7E007F0002A7
:103A93003B29E50875F017A4F8A9F0126A1EFAA3EA
:103AA300E0FBEEF8EFF9E875F012A4F8ACF075F06E
:103AB30012E9A42C123B846A7003A3E06B603FE518
:103AC3000875F017A4F8AAF0EA126A1DF8A3E0F942
:103AD3007401120AB1E0687003A3E0696020E5088D
:103AE30075F017A4F8EAF974AB28FC740C39FD746B
:103AF30003120AB1AA82AB83121D90E96014E50890
:103B030075F017A4F8A9F074A928FA740C39FB12FC
:103B130010AC05089029B8E493F8E508C39850035E
:103B2300023A95123B6D9004F6126D645039EEF82B
:103B3300EFF9123B76F47003A3E0F460E685188294
:103B43008519837401F0EEF8EFF9E875F012A4F823
:103B530075F012E9A42AF9123B95120AB1123BA39C
:103B630060C175080080AD023F5BEE24010EEF34A7
:103B730000FF22E875F012A4F8AAF075F012E9A488
:103B83002AF9123B8922742F28F582740B39F583A5
:103B9300E022743128F582740B39124B08740B221E
:103BA300E8F0A3E91241B9120B7EE922C082C08377
:103BB30090033D7454F0A3740EF090033F744EF0E1
:103BC300A3740EF0900343746EF0A3740CF0023FE1
:103BD3002874F712037BEAFEEBFF900377E0640897
:103BE300601BE0640460168E828F83E054036401DB
:103BF3007048123F2F12460FE06406703D8E828F8D
:103C030083A3A3E064FE7003A3E0F4602D8E828F90
:103C130083A3A3124120900368E0687003A3E069C3
:103C2300700BEE2415F582EF1267A46008120F02E1
:103C3300E9F5088008120F0880F67508C2EEFAEF5E
:103C4300FB1215A4022E4974F412037B8A088B0914
:103C53008A828B83E0F8A3E0FAE82AFAE43400FBD3
:103C630012159E8A0A8B0BAE0AAF0BEE4F6063856B
:103C73000882850983E0FC7D0079001215028E829B
:103C83008F83A3A31270D9120F448E828F83A3A3B1
:103C9300A3A3124093850882850983E0F8EE28F8F0
:103CA300EF3400124128850882850983A3E0C0E030
:103CB300EE240D1260D1D0E0F0120F56EE240E1256
:103CC30060D1E912577BE0C0E0EE24111260D1D03D
:103CD300E0F0EEFAEFFB0242D874F612037B74EBCA
:103CE3001208EFEAFEEBFF12539D6003023D807A58
:103CF300077B0012159E90033912409312539D6067
:103D0300788E828F83120A8E90033A124612120A19
:103D13009A126F9DC0E0123D8CD0E0F0EE2405FABC
:103D2300EF3400FB8A088B098A82F583E0C0E01236
:103D33003D87D0E01242CFE0C0E0123D87A3D0E040
:103D4300124107120A8E851882851983120A9A88EE
:103D5300828983E0C0E07405120AB1D0E0F08508DF
:103D630082850983E0C0E07404120AB1D0E0F074E4
:103D730007120AB1123EC2800679108002790174DB
:103D830015024134123D8CA322900339E0FAA3E0DB
:103D9300F5838A82A3A3A3A322C082C08312539D67
:103DA300600D900339125CAF900339E4F0A3F01275
:103DB3000E7212104C023F2874F012037B74EB1244
:103DC30008EFECFEEDFF89087425120AB1780C1296
:103DD3000A547429120AB1E0F9742A120AB1E0FCF8
:103DE300742B120AB1E0FD740F697005740F6C60D7
:103DF300129010E3E06402700579C1023EBDE9C38D
:103E03009C40F6900378780C120A72E50890037EC2
:103E1300F0E990037CF0ECA3F0ED90037FF074FFE6
:103E23006A700374FF6B701D9010EFE0F47003A3CE
:103E3300E0F47005121514800C9010EF123F45E862
:103E4300F0A3E98007900375EAF0A3EBF0EE4F606F
:103E530017EEFAEFFB12110CE96401700BEEFCEFA5
:103E6300FD7A897B03121D96900368E4F0A3F0901A
:103E7300036BF0A3F0900388F09010E3E06402700A
:103E83000890037C740FF0A3F09003777405F0148B
:103E9300120AB1E4F0900378120A8E85188285190C
:103EA30083120A9A90037EE0C0E07405120AB1D02F
:103EB300E0F07407120AB1123EC27415024B16E405
:103EC3001241B9121DC022C082C083900338E07032
:103ED30003121856120C38804CC082C083900338EA
:103EE300E090108A7004E4F0802D7401F0900338A0
:103EF300E0F460237C41E0C394415002E0FCECF821
:103F0300E0C398F0EC75F0E8A4CCA8F075F003A436
:103F130028FD7A80124B6C7A8A7B107941121DAE90
:103F23008003120BCCD083D08202080DEE1260E026
:103F330022E0F508A3E0F50922123F40221230895E
:103F4300A322124B0A9003752274F712037BEB90A2
:103F5300037FF0120E608005740D12085B7F01026F
:103F6300059574F712037B74E91208EFEAFEEBFF81
:103F73007508008E828F83A3A3A3E0C0E0740612AA
:103F83000AB1D0E0124088C0E07408120AB1D0E050
:103F9300F07409120AB17401124102F8A3E0F9E8BE
:103FA30049600D8E828F8312581A120B54E97046A2
:103FB3007407120AB1E4F0120F3E7404120AB1122C
:103FC3004093900377E06404700E120F4A74021258
:103FD3000AB1EAF0A3EB800B7402120AB174FDF08C
:103FE300A374FFF07402120AB1AA82AB83120F9872
:103FF300E9F508024081851882851983AC82AD8377
:104003008E828F8312581A120B608E828F83A3A322
:10401300A3A3E070247407120AB1740112409974C7
:1040230002120AB112412C8E828F83124120740432
:10403300120AB1E8F0A3E980AA12411A740A120A1B
:10404300B112412C7414120AB17401126611E0C04A
:10405300E07415120AB1D0E0F07416120AB1E4123A
:104063004102FCA3E0FD740C120AB1AA82AB8312D5
:104073001D96740A120AB1AA82AB8312176CA9089F
:104083007417023F5D12408EA3E022124107A32260
:10409300EAF0A3EBF02212410DF8A3E0F92274F742
:1040A30012037B74F81208EFEAFEEBFF790090032A
:1040B30077E06408704485188285198374FDF0A342
:1040C30074FFF0120F3E7402120AB112409374058A
:1040D300120AB1E412408EE0C0E07404120AB1D0B7
:1040E300E0124102C0E07406120AB1D0E0F0740796
:1040F300120AB1E41241B5120F987408023F5D121F
:104103004107E022F08E828F8322124112E022F0D7
:1041130085188285198322851882851983124B0A93
:1041230022E0F8A3E0F91260DFE8F0A3E9F02274DB
:104133000412085B7F02020595C082C08390034985
:1041430074FEF0A3740CF09003EF74F2F0A3740FF9
:10415300F090034D7434F0A3740DF090034F74FE8C
:10416300F0A3740CF0900351743AF0A3740DF002B1
:104173003F2874F412037B74F91208EF8A088B0941
:104183008C0A8D0B8518828519837808120A72743C
:1041930004120AB1E9F07405120AB1E4F0740612CC
:1041A3000AB1E41241B5120C2074070242D5E8F0BB
:1041B300A3E91241B922124112AA82AB832274F4F9
:1041C30012037B8A088B098A828B831260EDEE4F80
:1041D30070030242CD9003121253A060158A828BA2
:1041E30083A3A3E0F9EEFAEFFB9003131246121236
:1041F3001F6F8E828F83A3A3A3A3A3A3A3A3A3E071
:10420300640270748E828F83A3A3A3A3A3A3E05439
:1042130002700302429F850882850983A3A3E06499
:10422300E960798E828F83A3A3A3A3A3A3A3A3A3EC
:10423300A3E070149010E6E0048E828F83A3A3A3FF
:10424300A3A3A3A3A3A3A3F08E828F83A3A3A3A358
:10425300A3A3A3A3A3A3E0141242CFA3A3A3740411
:10426300F09010E7125B28E8F0A3E9126C018B0BC6
:10427300EA450B70031265DF8E828F83A3A3A3A38A
:10428300A3A3A3A3A3E0640260128E828F83A3A3DC
:10429300A3A3A3A3A3A3A3E06406702E8E828F839C
:1042A300A3A3A3A3A3A3E0A2E0501F8508828509CB
:1042B30083A3A3E0F9EEFAEFFB121E508E828F83E5
:1042C300A3A3A3A3A3A3E054FEF0800912451622DF
:1042D300740D12085B7F0402059574EC12037B7462
:1042E300DD1208EFEAFEEBFF8C088D097437120A22
:1042F300B1780C120A54750A007405120AB1AC8223
:10430300AD83120ADC7412120AB1E070087415123C
:104313000AB1E060207405120AB1E0A2E6501E8ED5
:10432300828F83A3A3A3A3A3A3A3A3A312581A12A5
:104333000FCEE960087903121D7E0244FC74051256
:104343000AB1E0540C64047005750B018003750B0E
:1043530000E0A2E55035750A01E50BA2E0402C12FE
:104363000F448A108B11A810A911123F2FE0687017
:1043730003A3E06960157405120AB11270E01258C4
:1043830016121E5CE96004790480AC7405120AB14C
:10439300E0A2E650227406120AB1E05403701874C6
:1043A30005120AB1E0540C640C600CE0540C640870
:1043B300600575100180037510007405120AB1E0E1
:1043C3005403F8740268700C1270E0125816120A43
:1043D300EE0244FC740168703AE510A2E050031247
:1043E30045047405120AB1A882A9837403120AB1A1
:1043F300E8F0A3E9124AFE85188285198312450E57
:10440300E0C0E07402120AB1D0E01241B5121F40BD
:104413000244FCE860030244FC90035FE064017023
:10442300108E828F83A3A3A3A3A3A3E070030243ED
:104433008A7422120AB17402124AFE741A120AB161
:1044430012412CE510A2E050087405120AB112457E
:1044530004E50BA2E0506AEE240FF582EF1267A485
:10446300C0E07417120AB1D0E0F09003141253A005
:1044730070030244FC120F448A128B13A812A9136F
:10448300741A120AB1E0687003A3E069706B780CC8
:10449300120840780A12084C7808120848A91074C8
:1044A3000C120AB1AC82AD837421120AB1AA82AB99
:1044B3008390031412460F121F6F740712085B8058
:1044C30038780C120840780A12084C780812084809
:1044D300900375120664EE2412F582EF1264D2740F
:1044E30023120AB1AC82AD83740E120AB1AA82AB55
:1044F30083121E44740912085B742312085B026B57
:10450300CC1270E0125CBD120AE222E8F0A3E912B9
:1045130045162212451A22F08E828F83A3A3A3A3EA
:10452300A3A32274F712037B12173C023F6074F7B4
:1045330012037B121742023F6074F712037B1217B8
:104543004E023F60C082C083121748023F2874F7AF
:1045530012037B121754023F6074F712037B740932
:10456300120AB1E0F508780812084C1217607401BA
:10457300023F5DC082C08312176C023F28C082C015
:1045830083121772023F2874F712037B1217780203
:104593003F6074F712037BEAFEEBFF890874016541
:1045A3000870147900120D769029C3E493FC790006
:1045B300EEFAEFFB120CEC023F6074F412037B740F
:1045C300F91208EFE9FE8A088B098C0A8D0B741324
:1045D300120AB112581A90059E1253A06027EE8555
:1045E3001882851983F07401120AB17808120A72CD
:1045F300EAF8EBF97405120AB11241B190059E1263
:10460300460F121F6F0241ACFB90034BE0F8A3E08F
:10461300F583888222C082C0831217A8023F2874C0
:10462300F712037B90108DE0F97E00800B126790E8
:10463300540D64017001190E12481C5003E970ED0A
:10464300023F6074F712037B90108EE0F97E0080C6
:104653000B126790548D64817001190E12481C501F
:1046630003E970ED023F6074F212037B890BE97575
:10467300F006A4240CF508E5F01237388A0CE50897
:10468300250CFAE5093400FB12159E8A0C8B0DAE3E
:104693000CAF0DEE4F6027AC08AD0979001215027F
:1046A300123F2FE50BF0EE2508F8EF3509F98E825E
:1046B3008F83A3A3A3A3A3A3A3A3A312412CEEFAC3
:1046C300EFFB02561574F612037BEAFEEBFF120CA6
:1046D300C890108CE0F8E9C398400990034512583C
:1046E3001A120CCEEE2402F8EF125E329003471238
:1046F3005CEC900347E004F0EEFAEFFB120CD48578
:104703000882850983E00262E8C082C08379009051
:10471300034580010912581A8A828B83E5824583F7
:1047230070F2023F2874F712037BEAFEEBFFEE4FB1
:1047330060569003451253A0604E888289837A00A5
:104743007B00EE65827003EF6583600FAA82AB8303
:1047530012478EE5824583602F80E7900345124719
:104763009A687002EF698E828F83700812412090DD
:1047730003458003126BDE12412CEEFAEFFB121F8E
:1047830010EEFAEFFB1215A4023F601247922212B9
:104793004B0E8882898322124B0AEE22C082C08389
:1047A3009003458004888289831253A0600B88821A
:1047B3008983124E52EC4D70EC8A828B83E4F0A312
:1047C300F0E849600688828983800390034512409C
:1047D30093023F2874F712037B90034580048A8277
:1047E3008B831248174B60257E0080010E12481CF4
:1047F30050ECEE75F006A4FCADF0EA2CFCEB3DFDAD
:10480300EC2410F582ED12486C70E180047A007B91
:1048130000023F60125CC1EA22124875EEC398227F
:1048230074F712037B7D0080010D124871EDC3986C
:104833005034ED75F006A4FEA8F0E8FFEA2EFEEB77
:104843003FFFEE2410F582EF12486C70DCED75F03B
:1048530006A4FEE8FFEA2EFAEB3FFBEA2411F582F9
:10486300EB1267A44CF0023F601267B06922124852
:1048730075221270EAEB3400F583E0F82274F61225
:10488300037B120DEE7A007B008025EAF8EBF9E852
:1048930075F006A4F8ACF075F006E9A42C125C964A
:1048A300126FABA3E4125D8CF0A3126FB1127128E7
:1048B3009029AD1233B740D37A007B00801C8A085D
:1048C3008B09740378081209F0125742A374FEF09F
:1048D300A304125B6CA3E41271289029B712491F39
:1048E30040DC7A007B00801D8A088B0974037808FA
:1048F3001209F074D112641C740F126C6374FEF00D
:10490300A3041271289029BD12491F40DB9029C1CD
:10491300E493900353F0124929024137E493F8C317
:10492300EA98EB9400227CE87D037A107B009003E5
:10493300C2E0F91216582274F012037B74F51208C0
:10494300EF8A088B09890A8C0BE9A2E050147508D9
:10495300FC7509FFA2E15005D2E40249FCD2E3024F
:1049630049FC1256017003A3E06970057900024AFD
:10497300C9AC0A7902AA08AB09120DCAE960EDE5D0
:104983000AF50C780C12084C79027CFE7DFFAA080C
:10499300AB0912537C12085BE96003024AC7E50ABC
:1049A300C2E5F50A9003B5E07051E50AA2E6404B73
:1049B3007403120AB1AC82AD83AA08AB09120B5A75
:1049C300E97032124C9D8A0C8B0DA80CA90DE8FEE0
:1049D300E9FFE8496025EE24020A0AEF1230C760B6
:1049E3001AEE2402FCEF3400FD7403120AB1AA820A
:1049F300AB83121D96E50AD2E5F50A900348E0F56C
:104A03000C900368E0F50EA3E0F50F780E1208484A
:104A13007D017C00900348E0F9AA0EAB0F120D82D2
:104A2300740212085BE9F8900348E004F0E86003BD
:104A3300024AC7E50AA2E55004740E80027406C058
:104A4300E07401120AB1D0E01260FE8A0E8B0FAE41
:104A53000EAF0FEE4F6069124AE7124AFE88828951
:104A6300837401F07478550AA31270F0E50C127088
:104A7300F0A3E508F0E509124AD6E4F0E50AA2E559
:104A8300500F7403120AB1AC82AD83E82406124AB4
:104A9300CD8E828F83A3A374FDF0A374FFF0E50B87
:104AA30060159029C4E493F8E50BC3985009EE24EC
:104AB300131260D1E50BF0EEFAEFFB120C14800633
:104AC3007910800279C7740B8049FAE93400FB122C
:104AD3001D962288828983A3A3A3A3124AE22212EA
:104AE3005E65A322EE24171260E27401F0120F3EFA
:104AF300EE241A1260E2EAF0A3EB22F01270E4341F
:104B030000124B0822F583124B0E22E0F8A3E0F9C2
:104B130022740D12085B7F0802059574F612037B5D
:104B23007A007B101265EC60089003D47401F08066
:104B330029900641E064019010E47006E0FC7901DD
:104B43008004E0FC79037A007B00120CEC9029AB23
:104B5300124B607A007B10124B6E024137124B648A
:104B630022E493FC740193FD227B009003C2E0F9DD
:104B73001216522274EC12037B8A088B098C0C8D5B
:104B83000D890E7414120AB112555B7416120AB110
:104B9300E0F510A3E0F511120FCEE960077AFF7B71
:104BA300FF024C9A9010E3E064026003024C8D799B
:104BB30000AA08AB09120DD0A90E120DC48A128BDC
:104BC30013AE12AF13EE4F7003024C758E828F83B8
:104BD300A3A3A3A3A3E064018E828F83A3A370691D
:104BE30012581A8E828F83A3A3A3A3A3A3E05418FE
:104BF30060439029C2E4938E828F83A3A3A3A3F07F
:104C0300EA650C7003EB650D6014EA650A7003EB4B
:104C1300650B600AEA65107003EB6511701F78106D
:104C2300120848AC0AAD0BAA0CAB0D1210CA7402E1
:104C330012085B80089003671265D6A3F074FE6ABE
:104C4300700374FF6B601D804EA3A3A3E064036035
:104C5300298E828F83A3A3A3A3A3E0640470057AA0
:104C6300FE024BA28E828F83A3A3A3A3A3E06402BD
:104C730070089003B4E064027010124C9D8B0BEA31
:104C8300450B6006AA08AB09800DAA08AB0990037F
:104C93004912460F121F6F026BCC90037512538299
:104CA30012108E2274F712037BEAFEEBFF120BAE97
:104CB300E9700AEEFAEFFB120BBAE96006EEFAEFBF
:104CC300FB80047AFE7BFF023F6074F012037B8A51
:104CD3000A8B0B8C0E8D0F8909750800120FCEE914
:104CE30079006003024E44AA0AAB0B120DD0A90946
:104CF300120DC48A0C8B0DAE0CAF0DEE4F60198EE6
:104D0300828F83A3A3A3A3A3E0640270559003B48B
:104D1300E064027003024E42AA0AAB0B90034F12E7
:104D2300460F121F6F120BC08A0C8B0DA80CA90D16
:104D3300E8497003024E4288828983A3A3A3A3A3F5
:104D4300E0A2E04003024E42750C01A2E1506879F3
:104D530001AC0AAD0BAA0EAB0F120D1CE970640275
:104D63004E428E828F83A3A3A3A3A3E064037005A3
:104D7300750C0280528E828F83A3A3A3A3A3E06446
:104D8300016003024E42900375124E528E828F834E
:104D93001251A78A0C8B0DA80CA90DE84960D1907C
:104DA30029BBE493FA88828983E0C39A50C2A3E0C3
:104DB3006003024E4280B988828983A3A3A3A3A37D
:104DC300D2E1F0EE4F603A8E828F83A3A3A3A3A315
:104DD300A3E05418602B7508018E828F83A3A3125E
:104DE3000664750CFE750DFF780C1208487900AC4B
:104DF3000AAD0BAA0EAB0F120DE2740412085B800E
:104E03003E900368E0650E7004A3E0650F70149094
:104E130029C3E493FCA909AA0AAB0B120CEC75088D
:104E230001801CA90CAC0AAD0BAA0EAB0F120D1C12
:104E3300E9700C750801A909AA0AAB0B120D76A932
:104E430008024B19E50C2415F582E50D1260E512F5
:104E53005B422274EA12037B74F01208EF8A0C8B14
:104E63000D8C088D097426120AB1E0F514A3E0F540
:104E7300157512069003F51253A060239003751263
:104E83004E52AA08AB091210B88A108B11EA4511C9
:104E9300600D8A828B83A3E07005790002518FE550
:104EA3000C241DF50EE50D3400F50F850E8212530B
:104EB3008CF51388828983A3A3A3E0FA888289836C
:104EC300A3A3A3A3E0F9EA2400FEE439FFAA08ABF5
:104ED30009120D7C850E82850F831251CAE029F5D4
:104EE3000BE50AA2E5500375120E7487550A701775
:104EF3007418550A6418600FE50C2417F582E50D44
:104F03001267A4651260077901121D7E808C530A13
:104F130078C3EE94F8EF94FF501D7900EEFAEFFB9F
:104F2300125199601288828983A3A3A3A3A3A3E048
:104F330054186003024E9D78081208487D001251F0
:104F4300BD12085BE9F87403687003024E9DE860C4
:104F5300030250087418550A70030250BDE50AD2C3
:104F6300E0F50AA2E45004D2E1F50AA90A125813A3
:104F7300125199605388828983A3A3A3A3A3A3E0B7
:104F83005418604488828983A3A3A3A3A3E0640184
:104F93007036E51045116030900375124E528882C9
:104FA30089831251A78A0E8B0FA80EA90FE84960B7
:104FB3001788828983A3E0600F851082851183A3FC
:104FC3001262F35003024E9DE50AF50E780E1208A5
:104FD3004C1251B012085BE9702B7C007D008514E4
:104FE3008285158374FFF0A3F0850C82850D83A35E
:104FF300A3A3A3A3A3A3A3E06003124E47A90B1289
:105003005813121766851482851583E0F47003A381
:10501300E0F460399003B4E064027003024E9D1221
:10502300554CE0FAA3E012460B121F6FEA650870B5
:1050330003EB65096003024E9DEEFAEF12460B1275
:105043001F6F851482851583EAF0A3EBF0780812AD
:1050530008487D011251BD12085BA90AEEFAEFFB65
:10506300120DD08A088B09A808A909900368E06883
:105073007003A3E0696003025180EEFAEFFB120BA9
:10508300C08A088B09A808A909E849606E88828943
:1050930083A3A3A3A3E06401600D88828983A3A3F0
:1050A300A3A3E064027054851882851983AC82AD92
:1050B30083EEFAEFFB120B5A8055900361E0600F09
:1050C300E50AF50E780E12084C1251B012085BE592
:1050D3000AF50E780E12084C79027CFE7DFFEEFA7B
:1050E300EFFB12537C12085BE9600302500885143E
:1050F3008285158374FFF0A302504F120F3EEAFC22
:10510300EBFD851882851983AA82AB83121D9685D0
:105113000C82850D83A3A3A3A3A3A3A3A3E064018C
:10512300700F124E477408120AB1AA82AB83121D84
:1051330096125356125F6A4430F508780812084CE9
:105143007401120AB1858208858309780812084818
:10515300740B120AB18582088583097808120848FE
:10516300E513F508780812084C7900EEFCEFFD1200
:105173005813120D16740612085B024E9D125356F5
:105183001260D41251CAE50BF0120F5674101208B4
:105193005B7F0E020595120DC48A0E8B0FA80EA914
:1051A3000FE84922A3A3125CC11210B8227901AC03
:1051B30008AD09125CB612537C22AC0BA913125C26
:1051C300B6120D82740222125F72A3A3A3A32274E8
:1051D300F012037B74F01208EF8A0C8B0DECFAEDDE
:1051E300FB750F089003F51253A060141262EC8A4A
:1051F300828B83E58245836007A3E07003025351EA
:10520300125356340012538CF50B88828983125340
:105213005FE0FBEC2400FEE43BFF88828983A3A3C9
:1052230012535FA3A3E0FBECF508E43BF509888286
:105233008983A3A3A3A3A3A3A3E0F50EE50AA2E492
:105243005003750F10A2E550067408250FF50F746F
:105253008F550A700FE50C2417F582E50D1267A42C
:10526300650F60087901121D7E025351530A70784D
:1052730000E50AA2E450221253561267A42408FC44
:10528300A3E03400FD7408120AB1AA82AB83121D95
:10529300967808E50AC2E4F50AE50AA2E550281261
:1052A30053561267A428F8A3E03400F9E82408FC55
:1052B300E93400FD851882851983AA82AB83121D08
:1052C30096E50AC2E5F50AAC0EA90BEEFAEFFB125E
:1052D3000D88E9F87403686075900368E06E7003E5
:1052E300A3E06F605EE87054E50AF50F780F1208CB
:1052F3004C12536D12085BE97054780A12084C740F
:1053030001120AB185820C85830D780C120848744A
:105313000B120AB185820C85830D780C120848E5BF
:105323000BF50A780A12084CA90EAC08AD09EEFA7F
:10533300EFFB120D16740612085B8012740468707A
:105343000D80B7780A12084C12536D12085B741063
:10535300024B16E50C241DF582E50D22A3A3A3E061
:10536300FC88828983A3A3A3A32279011255531234
:1053730060E512538212537C22120D40740122E025
:10538300FCA3E0FDAA08AB0922F583124792A3E030
:10539300F50A88828983A3A3E022900339125D1D55
:1053A3002274E812037B74F51208EFEAFEEBFF8C1C
:1053B300088D0989147423120AB1E0F50F742412BD
:1053C3000AB1E0F512A3E0F5137426120AB1E0F571
:1053D30016A3E0F5177428120AB1E0F50EA90F120F
:1053E3000D8E8A108B117401120AB17408F0E50E48
:1053F300A2E450037410F0E50EA2E55004E0240883
:10540300F0851882851983AA82AB83120FB68A0CA2
:105413008B0DEA450D7003025533EA2417F582EB31
:10542300125545120F3EE50C241AF582E50D126064
:10543300D41240937403120AB1AC82AD83AA10ABA9
:1054430011120B5AE9601D12553D7403120AB1A8DB
:1054530082A983E50C2418F582E50D1260D4E8F0E7
:10546300A3E98024E50EA2E4501FE5106E7003E566
:10547300116F701512553DE50C2418F582E50D12D8
:1054830060D4E512F0A3E513F012554C12555B8579
:105493000A82F5837402F0A3E50E125563E50FF05B
:1054A300EE850A82850B83A3A3A3F0EF850A828589
:1054B3000B83A3A3A3A3125563A3A3A3E508F0E55A
:1054C30009850A82850B83A3A3A3A3A3A3F0AA1030
:1054D300AB11120D7CE92514850A82850B83A3A3E6
:1054E300A3A3A3A3A3F0750800E50EA2E45011AC97
:1054F30012AD13E50A2408FAE50B124ACF75080822
:10550300E50EA2E55014AC16AD17E50A2508F8E53B
:105513000B3400F9E82408124ACD850C82850D83EB
:10552300A3A3E510F0A3E511F0AA0CAB0D120C1424
:10553300740B12085B7F10020595E50C2416F582A7
:10554300E50D1260E57401F0221255531260E52255
:10555300E50C1270EBE50D22E0F50AA3E0F50B2252
:10556300F0850A82850B83A3A32274F212037B8A3C
:10557300088B09ECFEEDFF890A79001256017003CE
:10558300A3E069700479018073750B01900368E0EF
:1055930065087004A3E06509601F750B00780B12A2
:1055A300084CA90AEEFCEFFDAA08AB0912100A7415
:1055B3000112085BE9F50B80417900EEFAEFFB126B
:1055C3000DC4EA4B602B8A828B83A3A3A3A3A3A35B
:1055D300E05418601C7508FE7509FF780812084826
:1055E3008A828B83A3A3120664126F0012085B8066
:1055F300097901EEFAEFFB120C9EA90B8014120D30
:10560300D08A0C8B0DA80CA90D900368E0682212B8
:10561300085B7F0602059574F412037B7508197500
:10562300090E7A10126C088B0BEA450B70031249B2
:1056330029900353E014F0700C9029C1E493900374
:1056430053F0120DDC7E007F00806C850882850993
:1056530083A3A3A3A3E06059F46056E5082404F5EB
:1056630082E5091265D07049850882850983A3A361
:10567300A3A3A3E0640370197902850882850983D3
:10568300124E52850882850983A3A312581A120D5C
:105693001C850882850983A3A3A3A3A3E0640160F7
:1056A3001085088285098374FEF0A304125774E4FD
:1056B300F0123B6D1237309029AF126D64408C7E2F
:1056C300007F008039120EE48E088F097403780876
:1056D3001209F074912508FC740F3509FD7A287BB3
:1056E3000D120ED2EA4B70DD8E088F097403780811
:1056F3001209F0125742126FABE4F0123B6D90297E
:10570300B7E493F8C3EE98EF9400501B8E088F090B
:10571300740378081209F012574AE82407F582E95E
:105723001265D070D680A17E007F00800A12575583
:10573300600214F0123B6D126D6140F10242D81207
:10574300574A888289832274912508F8740F350992
:10575300F922EEF8EFF9E875F006A4F8AAF075F06F
:1057630006E9A42AF9743128F582740F39F583E028
:105773002212577BA3A3A322F0850882850983A362
:10578300A32274F712037B74E11208EFECFEEDFF22
:10579300750800EE4F60728A828B83E0241C1266C8
:1057A300011253A060638A828B8312581A85188270
:1057B300851983AC82AD83EA241BF582EB1264D294
:1057C300EA241CF582EB125816120F26740B120AE8
:1057D300B112581E7003A3E069702E7402120AB14D
:1057E300E064017024741D120AB112460FE06401D3
:1057F3007017741D120AB1124611A3A3E0F88E822A
:105803008F83E0687003750801A908741F023F5D68
:105813001255533400F583125CC122123085E068BF
:105823002274F412037BE97024790090034D12462D
:105833000F121F6F8A0A8B0BAE0AAF0B74FE6E70CA
:105843000374FF6F701A9029BEE49360137901907B
:10585300034D12460F121F6F8A0A8B0BAE0AAF0B52
:10586300120F7A023CD5E028F8A3E039F92274F646
:1058730012037B74F31208EF1215148A088B09AE16
:1058830008AF09900368E06E7003A3E06F60E9124C
:105893000F4AEA6E7002EB6F60DEEEFAEFFB120F57
:1058A300CEE970D4EE4F60D0851882851983E4F079
:1058B30004120AB1EEF0A3EF1258D4E970BA74FEE1
:1058C3006E700374FF6F60B0EEFAEFFB740D02416C
:1058D300341241B9120B7222C082C083120F7A02B2
:1058E3003F287F0A02059574F212037BEAFEEBFF61
:1058F3008C0A8D0B8908740E120AB1E0F50974FC49
:105903006E700374FF6F70057900025615790012EB
:105913000DD08A0C8B0DAE0CAF0D900368E06E704A
:1059230003A3E06F7006E509A2E650DCA909126D36
:10593300EE706179007AFE7BFF126DEE705674187B
:1059430055097003025A2178007900800312327FCF
:105953009029AF1232764003025A21E8FAE9FBEAB2
:1059630075F007A4FAACF075F007EBA42CFB741FD9
:105973002AF582740E3BF583E0541870D0E875F075
:1059830007A4F8AAF075F007E9A42AF9741928F80E
:10599300740E39F988828983A3A3A3A3A3A3E05434
:1059A30018600974185509700302590B888289839A
:1059B300EEF0A3EFF074FE650A700474FF650B60EC
:1059C30003125B4888828983A3A3A3A3A3A3E50946
:1059D300F0A2E0500D88828983A3A3A3A3A3A3D23B
:1059E300E2F07401650888828983A3A3A3A3A3704B
:1059F300387401125B6CE0541860289029C2E49358
:105A030088828983A3A3A3A3125B361210B88B0DDC
:105A1300EA450D600302590B780079008039790259
:105A230002590D900367E080D7E0640170030259C7
:105A33000B88828983A3A3A3A3A3A3E054186007BD
:105A43009029C2E4938004900366E0124AD6E508E5
:105A5300F002590B12327F9029B8E493FAC3E89A03
:105A6300E99400400302590B7A007B00804BEAFC67
:105A7300EBFDEC75F007A4FCAEF075F007EDA42E7A
:105A8300FD741B2CF582740E3DF5831260EDE8FC6A
:105A9300E9FDEC75F017A4FC85F00975F017EDA48A
:105AA3002509FD74A92CF582740C3DF583E06E7015
:105AB30003A3E06F609E123A429029AF1237404031
:105AC300AD124B60EC6A7002ED6B7088E875F017ED
:105AD300A4F8AAF075F017E9A42AF974A928FE74AA
:105AE3000C39FF7C177D007900EEFAEFFB121502EB
:105AF3008E828F83125B4E900375125B28A3A3A340
:105B0300A3A3A3E8F0A3E9125B2E7401F0EE240E25
:105B13001260D17401125B5612022AEE240D126038
:105B2300D1E8025A53123F40A3A322F0EE240F12EE
