:020000040000FA
:06000000020A9A0201E071
:03002B000208D5F3
:030033000206F1D1
:0300430002078A27
:0300530002011196
:03006B000206D7B3
:100083000201750101FF050301C010C010C010C0BB
:10009300107C0F760FC010EF25000000002B250009
:1000A3000000000C0000000C000100008E12000094
:1000B30000000000481300000000000000000000E2
:1000C300FFFF414C443235333020503250000101A0
:1000D3000025050000007705E80364006400B8010B
:1000E30002020008000005020701051E02051E02A8
:1000F3000A0A03B80B02803E010201FFFF020A1441
:1001030001E01F00E0079651180002020612C0E04A
:1001130074F21203F9A2AFE433FED2AFE5A7FFE511
:10012300A1F5085F541060061219EA75A1EFE508FE
:100133005F540860081219F075A1F7802BEFA2E055
:10014300C0D0E508A2E092F01209D7158182F050E1
:1001530017906198E0F8900855E0C398A2D265D053
:10016300335002E8F075A1FEEEA2E092AF7F0102E8
:100173000458C0E074F21203F9A2AFE433FED2AF25
:100183009061A4E0F8759B00E591585408600875E8
:1001930091F7121A38802AE5915854106008759126
:1001A300EF121A3E801BE8A2E0C0D0E591A2E092D4
:1001B300F01209D7158182F05007E0C2E0F0121B5C
:1001C300829061A3E0F8E5E9585404600E121B58CD
:1001D30075E9FB906193E0A2E640F2808BC0E07486
:1001E300F21203F9A2AFE433FED2AF9061A5E0F8B7
:1001F300E5BF585404600675BFFB121B9A02016BDE
:10020300C3E498F8E499F91202448026C3E49AFA05
:10021300E49BFBE920E7E9120244E498F8E499F946
:1002230022C3E498F8E499F9120244E498F8E499B3
:10023300F9C3E49AFAE49BFB22EB20E7CFE920E73A
:10024300E0B90010BB0008E88AF084F8AAF022E4C1
:10025300FBC8FA22EB70227B10C833C8C933C933F9
:100263005007C39AC3DBF280069A50012ADBEAC81F
:1002730033F4C8C933F4C9FA2275F008E4C833C8A3
:10028300C933C933C99AC99B5004C92AC93BD5F09C
:10029300ECFBC833F4C8E4C9FA22080808EAC0E052
:1002A300EBC0E086F0E7A4FA180986F0E7A42AFA7F
:1002B300180986F0E7A42AFA180986F0E7A42AFAAF
:1002C3001986F0E7A4FBE5F02AFA190886F0E7A4FB
:1002D3002BFBE5F03AFA190886F0E7A42BFBE5F0CF
:1002E3003AFA18180986F0E7A4C5F02BFBE43AFAAA
:1002F3001908E7C5F0C6A426F6E5F03BFBE43AFA95
:100303001886F0E7A4F6E5F00826F6E43B08F6E4E1
:100313003A08F6D0E0FBD0E0FA22E4CFC0E0E4CE26
:10032300C0E0E4CDC0E0E4CCC0E075F020C3E63328
:10033300F608E633F608E633F608E633F618181837
:10034300EC33FCED33FDEE33FEEF33FFC3EC9709E3
:10035300ED9709EE9709EF97191919400FFFEC97DD
:10036300FC09ED97FD09EE97FE191906D5F0BEECD1
:10037300F709EDF709EEF709EFF7191919D0E0FCC2
:10038300D0E0FDD0E0FED0E0FF222518C582C0E01A
:10039300E51934FFC583C0E0E518C3958224F8103E
:1003A300AF0885831985821880088583198582188B
:1003B300D2AFCEF0A3E520F0A37808E608F0A3DEE1
:1003C300FAEFF0A3E58124FAF8E608F0A3E608F0D3
:1003D300A3E608F0A30808E608F0A3E608F0A315CF
:1003E300811581D0E0FED0E0F8158115811581E8F3
:1003F300C0E0EEC0E022C0D02518C582C0E0E519F8
:1004030034FFC583C0E0E518C3958224F310AF0819
:100413008583198582188008858319858218D2AF50
:10042300C8F0A3E9F0A3EAF0A3EBF0A37908E70986
:10043300F0A3D8FAECF0A3EDF0A3EEF0A3EFF0A352
:10044300D0E0F0A3D0E0F0A3D0E0F0A3E520F0A348
:10045300E5F0F0A322851983851882E0C0E0A3E0CC
:10046300F9A3E0FAA3E0FBA37808E0F608A3DFFA18
:10047300E0FCA3E0FDA3E0FEA3E0FFA3E0C0E0A354
:10048300E0C0E0A3E0F5D0A3E0F520A3E0A3F5F0FE
:1004930010AF0885831985821880088583198582A2
:1004A30018D2AFD082D083D0E0F8D0E032120AFC69
:1004B300B900030204F2E490030178AC790A8002E4
:1004C300F0A3D8FCD9FA900CACAA82AB8390008637
:1004D300788C79018015E493A3AC82AD838A828BF7
:1004E30083F0A3AA82AB838C828D83D8E9D9E77585
:1004F30082BA758399740312084D75822E75831E13
:10050300740012084D75F0108E1A8F1B85821F859B
:10051300831E851882851983E0CEA3E0CF851F82D1
:10052300851E83EBC9EAC8EDCBECCAC3E833C8E93F
:1005330033C9EA33CAEB33CBC3EA9EF51DEB9FF510
:100543001CB35004AB1CAA1DEC33CCED33CDD5F05A
:10055300DAAE1AAF1B22D083D082ECC0E0EDC0E04C
:10056300E493A3FCE493A3FDED4C600D120631EC80
:1005730024FFFCED34FFFD80EFE493A3FCE493A39D
:10058300FDED4C600D120735EC24FFFCED34FFFD4F
:1005930080EFD0E0FDD0E0FCE493A3C0E0E493C09F
:1005A300E022851983851882E0A3FEE0A3F5207875
:1005B30008E0A3F608DFFAE0A3FFE0A3C0E0E0A3AE
:1005C300C0E0E0A3C0E0E0A3C0E0E0A3C0E010AF60
:1005D300088582188583198008858218858319D236
:1005E300AFD083D082020853D083D082E9C0E0E445
:1005F30093A3C386F0C5F095F0F908E493A386F0BE
:10060300C5F095F0700BE493A3C3994005E904800A
:1006130002A3E475F002A42582F582E5F03583F5A3
:1006230083D0E0F9E493A3C0E0E493C0E022C0E008
:10063300C3E49396087401939618400FE49366708D
:100643000808740193661870007019A3A3C3E49398
:1006530096087401939618A3A3400DD0E0D0E0D080
:10066300E0020595A3A3A3A3A3A3D0E022D083D044
:1006730082C5F0E493A3C5F0C395F0F5F0E493A32A
:10068300C395F04005E5F0048001E475F002A4256C
:1006930082F582E5F03583F583E493A3C0E0E49328
:1006A300C0E0227404800474028000CCC0E0EDC07A
:1006B300E0E518C39CCCAD1950011D10AF068C1892
:1006C3008D1980068C188D19D2AF1207CFD0E0FD9B
:1006D300D0E0FC22C0E074F21203F9E589A2E150F4
:1006E300031218A0758900C2C57F01020458C0E037
:1006F30074F21203F9E58BA2E050031218A0758B74
:1007030000C2E880E474028000CCC0E0EDC0E0E504
:1007130018C39CCCAD1950011D10AF068C188D1950
:1007230080068C188D19D2AF1207ADD0E0FDD0E052
:10073300FC22C0E0C0F088F0E493667008087401FE
:100743009366187000A8F0A3A3700BD0F0D0E0D08C
:10075300E0D0E0020595A3A3D0F0D0E022D083D06F
:1007630082CCC0E0E493A3600612082E1470FAE46E
:1007730093A3600612091F1470FAD0E0FCE493A35C
:10078300C0E0E493C0E022C0E074F21203F9A2AF28
:10079300E433FED2AFC2C0E5D1A2E450031219661E
:1007A300EEA2E092AF7F01020458CAC0E0E493A333
:1007B300C582CCC582C583CDC583F0A3C582CCC514
:1007C30082C583CDC583DAE5D0E0CA22CAC0E0E0A2
:1007D300A3C582CCC582C583CDC583F0A3C582CC16
:1007E300C582C583CDC583DAE6D0E0CA2270090885
:1007F3000808226016181818C6C333C608C633C6BD
:1008030008C633C608C633C6D5E0EA22C008C3E02B
:1008130096F50808A3E096420808A3E09642080864
:10082300A3E09645087001D3D00822C0E0E493A367
:10083300D39C5010E493A3C39C400AD0E0D0E0D0F3
:10084300E002077DA3A3A3D0E022C09FF59FE4733A
:10085300D09F22D083D082C09FE493C0E0740193E1
:10086300C0E0740293F59F227404800A7403800627
:10087300740280027401C0E0F404120886D0E0120E
:100883000AD7222518F58210AF08F518400215196A
:100893008008F51840021519D2AF85198322BB01D0
:1008A30002E722C082C08389828A83BB0003E0807F
:1008B30002E493D083D08222C0D0251810AF08F56C
:1008C30018500205198008F51850020519D2AFD047
:1008D300D022C0E0C0D0E8C0E0E5A8D2AFC2C7A232
:1008E300E792AFD0E0F8D0D0D0E032601608080825
:1008F300C6C313C618C613C618C613C618C613C66E
:10090300D5E0EA22C3E0C696F608A3E0C696F60849
:10091300A3E0C696F608A3E0C696F622C0E0E493E9
:10092300A36C7009D0E0D0E0D0E002077DA3A3D090
:10093300E022251810AF08F518400215198008F5B4
:100943001840021519D2AF22E76670100809E7664E
:10095300700A0809E76670040809E76622E0667012
:100963001008A3E066700A08A3E066700408A3E019
:100973006622C3E09608A3E09608A3E09608A3E0E6
:1009830096A2D265D03322C3E096F008A3E096F096
:1009930008A3E096F008A3E096F022E026F008A36F
:1009A300E036F008A3E036F008A3E036F022E627AD
:1009B300F60809E637F60809E637F60809E637F6D2
:1009C30022E026F608A3E036F608A3E036F608A3ED
:1009D300E036F622C0E0E8C0E0E58124FCF8E6A2B8
:1009E300E7D0E0F8D0E022E647F60809E647F60844
:1009F30009E647F60809E647F622E657F60809E648
:100A030057F60809E657F60809E657F622E056F6C0
:100A130008A3E056F608A3E056F608A3E056F6222C
:100A2300E056F008A3E056F008A3E056F008A3E070
:100A330056F022700422600D18C6C333C608C633AD
:100A4300C6D5E0F41822E4C396F608E496F608E463
:100A530096F608E496F622600D08C6A2E713C618B8
:100A6300C613C6D5E0F322C6F4C608C6F4C608C644
:100A7300F4C608C6F4C622C3E7960809E796080930
:100A8300E7960809E79622C3E09608A3E09608A331
:100A9300E09608A3E0962275D00075814075180191
:100AA300751903000204B0E0F608A3E0F608A3E01A
:100AB300F608A3E0F622600C08C6C313C618C613D3
:100AC300C6D5E0F422E6F008A3E6F008A3E6F008B2
:100AD300A3E6F022CAC0E0E6F0A308DAFAD0E0FA0F
:100AE30022E0FAA3E0FBA3E0FCA3E0FD22EAF0A3EB
:100AF300EBF0A3ECF0A3EDF022E5C754F84401F5C5
:100B0300C77901222518F582E43519F58322C2AF8E
:100B130075D69F0200002212085645B101120856ED
:100B230079B101120856AEB101120856A5B20112ED
:100B330008565AB301120856A9B501120856FCB655
:100B4300011208569FB701120856F2B8011208564F
:100B530010B901120856008002120856358002129D
:100B630008565B8002120856958002120856A78029
:100B730002120856F980021208565A8102120856C8
:100B8300E48102120856888202120856D0820212A9
:100B930008560A83021208562783021208564C830A
:100BA300021208569E8302120856B7830212085691
:100BB300DD83021208561884021208565C8402125E
:100BC3000856838402120856D48402120856848578
:100BD300021208563C86021208560487021208566F
:100BE300E1870212085667880212085676880212B5
:100BF30008568188021208568A89021208569B8970
:100C030002120856118A02120856A38A02120856C3
:100C1300FB8A02120856C18B02120856F28B02128B
:100C23000856378C02120856448C02120856D88D87
:100C330002120856238F02120856D28F0212085648
:100C4300EE9002120856589302120856639302124A
:100C530008566D930212085678930212085682932F
:100C6300021208568C9302120856979302120856E2
:100C7300A29302120856D39302120856F793021254
:100C830008561B9402120856809402120856C49404
:100C930002120856E094021208565795021208569B
:100CA3008F9502120856DB950212085638960212E7
:100CB30008561A9802120856A098021208567999F3
:100CC30002120856899C02120856DE9C021208562C
:100CD3000B9D02120856579E02120856A79E021237
:100CE3000856FC9E02120856FD9F0212085695A054
:100CF3000212085617A102120856B7A1021208568B
:100D0300FA27001208563328001208560D2A00123B
:100D130008564C2A00120856962A001208563B2BF6
:100D2300001208569A2B00120856CE2B00120856B2
:100D33003B2C00120856582D00120856602E001244
:100D43000856F62E001208563D3200120856E632B7
:100D530000120856C23300120856233400120856F4
:100D63004035001208566A3700120856213800121F
:100D730008562B38001208565E38001208562539DB
:100D830000120856C03900120856253A00120856B8
:100D93004E3A00120856703A001208569F3C001251
:100DA3000856763D00120856BA3D00120856273EF3
:100DB30000120856E23E00120856143F001208566D
:100DC300583F001208568B3F00120856E03F0012AE
:100DD3000856354000120856C940001208562B41E8
:100DE300001208569341001208563C43001208565D
:100DF3002444001208566645001208569447001210
:100E03000856544800120856834A00120856264BC7
:100E130000120856644B00120856104D0012085673
:100E2300244D001208562E4D00120856584D00123C
:100E33000856644D00120856834D001208563A4E68
:100E430000120856794E00120856834E00120856B7
:100E53008D4E00120856D84E001208563B4F001212
:100E63000856425000120856035100120856AB515F
:100E730000120856F75200120856F0530012085693
:100E83008D54001208562F5500120856465500126D
:100E930008567D55001208569B5500120856DF551B
:100EA30000120856045600120856EA560012085655
:100EB300565700120856D05700120856DF58001232
:100EC30008561E5A00120856805A001208563A5BFA
:100ED300001208565D5B00120856315C001208567A
:100EE3007C5C00120856BE5C00120856155D0012A9
:100EF30008564C5D001208567A5D00120856B35D21
:100F030000120856D85D00120856605E001208569B
:100F1300836000120856E2600012085676610012E0
:100F23000856E2610012085636620012085652C68D
:100F33000312085691C60312085655BA01120856F1
:100F4300AFBA011208560BBB0112085657BB011268
:100F5300085672BB01120856A3BB01120856C0BB48
:100F630001120856CCBB0112085640BD01120856A7
:100F730059BD01120856C0BD01120856D3BD011256
:100F83000856E1BD0112085695BE0112085679BFF5
:100F9300011208567FC00112085605C101120856F6
:100FA3000FC1011208567CC10112085693C10112E8
:100FB3000856C5C101120856FEC10112085628C2BF
:100FC3000112085689C201120856A9C20112085615
:100FD300C7C2011208560DC30112085633C40112C9
:100FE300085680C401120856AFC40112085625C51D
:100FF300011208564DC50112085686C5011208563E
:1010030094C501120856ECC5011208563BC60112DD
:1010130008567AC601120856AAC601120856D6C641
:1010230001120856E1C601120856FFC601120856FE
:10103300C1C701120856CBC70112085606C80112D0
:1010430008561CC80112085625C8011208567AC84A
:10105300011208568EC8011208569CC9011208567F
:10106300AFC901120856C4C90112085666CA011253
:101073000856E9CA01120856A7CB01120856B2CB8B
:1010830001120856D8CC01120856F4CC01120856A6
:1010930046CD0112085685CD011208569ACD01128C
:1010A3000856DCCD0112085629D001120856A7D0E4
:1010B300011208561AD1011208563CD301120856E0
:1010C30054D30112085657D30112085663D30112A1
:1010D300085677D3011208567FD301120856B2D3AC
:1010E3000112085662D401120856D8D401120856C8
:1010F3004BD501120856FFD501120856B4D601127A
:101103000856D3D60112085673D7011208567FD753
:1011130001120856AAD701120856ADD70112085674
:1011230017D8011208563FD90112085617DA0112CF
:101133000856A2DA01120856BBDB0112085678DC06
:1011430001120856B1DC01120856E2DC01120856FE
:1011530082DD01120856B2DD011208568DDE01123E
:10116300085626DF01120856B1DF0112085662E065
:1011730001120856E4E00112085616E1011208565E
:1011830057E10112085674D902120856D9D902122E
:10119300085616DA0212085665DA021208567BDC84
:1011A300021208565EDE02120856C8E10212085601
:1011B30003E20212085625E20212085688E20212DE
:1011C3000856BCE202120856DFE2021208560CE38C
:1011D3000212085668E3021208565EC3021208564A
:1011E300DCC30212085612C4021208567EC402124D
:1011F3000856F1C5021208560DC60212085652C609
:1012030002120856E0C60212085639C702120856DF
:1012130066C80212085678C902120856D5C90212C6
:10122300085641CA02120856A2CA02120856E3CA55
:101233000212085690CB02120856A2CC021208568C
:10124300CDCC0212085618CD021208565FCD0212F9
:101253000856F1CD02120856ACCE0212085687FE8C
:101263000112085698FE01120856E9FE01120856AB
:101273002EFF01120856D8FF011208563FC203126F
:1012830008563CB80312085694B90312085623CFE4
:1012930002120856C8CF02120856E8CF02120856A7
:1012A30008D0021208561CD00212085674D002123B
:1012B3000856A4D00212085625D202120856CBD2E1
:1012C30002120856ADD302120856FED30212085674
:1012D30041D40212085684D402120856EAD40212E8
:1012E30008560BD50212085697D502120856C8D5D0
:1012F300021208563CD602120856EAD702120856C2
:10130300C4D80212085606D90212085660D902122E
:101313000856F7B20312085618B30312085664B4FA
:10132300031208568EB40312085644BB0312085620
:10133300BFBB03120856CABB03120856EBBB03120A
:1013430008564AF2011208564DF20112085607F3E5
:101353000112085632F30112085679F301120856A6
:101363009EF301120856BFF301120856F3F301125C
:1013730008562CF40112085655F5011208568CF53F
:1013830001120856ACF50112085647F60112085629
:101393000CF70112085643F701120856B8F8011268
:1013A30008565BF90112085654FA011208567DFAE1
:1013B30001120856D1FA0112085697FB011208567A
:1013C300C5FB011208565AFD01120856DBFD011236
:1013D30008560EFE01120856B4E302120856BEE385
:1013E300021208560AE40212085678E4021208565A
:1013F30000A801120856B0E40212085660E5021272
:101403000856F4E702120856FDE70212085650E8A0
:101413000212085679E802120856E0E8021208564A
:1014230071E902120856B3E902120856FDE90212E5
:1014330008565CEA02120856EDEA021208562CEB33
:10144300021208566BEB0212085629B10112085614
:10145300B2EB02120856C4EB02120856E3EB021277
:101463000856ECEB02120856A2EC02120856E2EC04
:1014730002120856258E03120856F88E03120856D8
:10148300128F03120856238F031208563891031242
:101493000856579103120856C5B003120856FBB0FD
:1014A3000312085644B10312085694B203120856A5
:1014B300706200120856AF6300120856EB63001205
:1014C3000856AA6500120856D365001208566668C6
:1014D30000120856AA6800120856336A001208560A
:1014E300CB6A00120856336B00120856D46B0012F5
:1014F3000856166C00120856566C00120856E16D19
:1015030000120856516F00120856767100120856E1
:10151300A47100120856CB7100120856D471001240
:1015230008562F7200120856C27200120856E07550
:1015330000120856617600120856E6C703120856D1
:1015430007C6031208563A9D031208564D9D03120F
:101553000856EA9D03120856259E03120856409E1C
:1015630003120856659E03120856AA9E03120856D4
:10157300DB9E031208560C9F0312085692A0031217
:101583000856A2BC03120856D8BC03120856F4BC72
:101593000312085636BD0312085646BD03120856F9
:1015A300DBBD031208569FA0031208565CA1031269
:1015B3000856FEA10312085649A203120856E5A2D3
:1015C3000312085692A303120856EDB202120856EC
:1015D3004BB30212085624B40212085608B502127D
:1015E30008561DB5021208567AB5021208568DB573
:1015F30002120856CEB50212085627B60212085632
:101603003BB60212085605B80212085680B80212F9
:101613000856AAB8021208563EBA021208564DBA24
:10162300021208569CBA02120856B2BA021208569F
:10163300D2BA0212085601BB0212085617BB021295
:101643000856A0BB02120856ABBB0212085604BCD4
:10165300021208565EBC02120856ACBC02120856AF
:10166300B6BD0212085638C002120856D5C002127F
:10167300085617C102120856ACC102120856C9C156
:1016830002120856CCC102120856DCC102120856D7
:101693004FC2021208567EC202120856AAC2021292
:1016A3000856E5C202120856F4C20212085607C3CE
:1016B300021208562EC30212085633C503120856E7
:1016C3003FC50312085679C5031208566AA20212CF
:1016D300085695A20212085661A302120856E6A301
:1016E300021208564FA4021208569BA4021208566F
:1016F3001AA502120856ACA50212085638A6021201
:1017030008567AA602120856E6AA0212085666ACD2
:1017130002120856A5AC0212085642AD0212085630
:101723001BAE02120856CFAE0212085684B0021244
:10173300085618B1021208568CE10112085646E207
:1017430001120856B8E201120856C7E20112085600
:1017530041E301120856B0E301120856BAE401123C
:101763000856E3E40112085683E501120856D1E551
:101773000112085641E60112085675E70112085690
:1017830051E801120856C2E8011208563FEA011255
:10179300085601EB011208569CEB01120856F7EBB1
:1017A3000112085662EC0112085666ED0112085642
:1017B30027EF01120856C6EF0112085638F001123E
:1017C3000856F5F001120856E3F40212085637F5ED
:1017D3000212085683F502120856CEF50212085675
:1017E3000EF6021208565EF60212085601F80212AD
:1017F300085673F8021208568BF802120856B2F80C
:10180300021208561DF90212085620FA021208564F
:101813006FAE03120856A0AE031208565AAF031256
:101823000856C0AF0312085631B003120856459A42
:1018330003120856D19B0312085632C303120856EB
:1018430043C303120856E3C30312085684B60312B4
:10185300085692B603120856FCC7031208569DC4D5
:1018630003120856ADC403120856C8C4031208561F
:1018730029C5031208563DC103120856C2C10312FB
:10188300085626C2031208562BC0031208564DC031
:1018930003120856B7C003120856C2C003120856F3
:1018A30006C1031208560BED0212085619ED021277
:1018B30008565AED021208567BED0212085605EE41
:1018C3000212085627EE0212085693EE0212085629
:1018D300AEEE02120856C9EE02120856D3EE0212F9
:1018E3000856DDEE02120856F0EE0212085609EF12
:1018F30002120856A5EF0212085661F002120856AA
:10190300D8F00212085652F1021208569EF1021242
:10191300085644F20212085620F302120856B092F7
:1019230003120856BE920312085638930312085640
:101933001C9403120856D59503120856A6C7031222
:101943000856D1FA021208563EFB02120856FFFB54
:10195300021208566FFC0212085678FD021208564E
:10196300F0FE0212085654FF02120856A9FF021293
:101973000856B2FF02120856C1FF02120856D4FFDE
:1019830002120856EAFF0212085600800312085694
:10199300558003120856518203120856838203129C
:1019A3000856A58203120856BE8203120856D78230
:1019B30003120856E183031208567C840312085667
:1019C300E3B90312085607BA0312085620BA0312E2
:1019D300085653BA0312085684BA03120856B2BA09
:1019E3000312085614BB0312085623BB03120856EE
:1019F3002DBB031208563ABB031208561CA7031249
:101A0300085642A7031208567FA7031208568EA74B
:101A130003120856ADA70312085615A80312085659
:101A23001EA8031208567DA803120856A1A8031284
:101A3300085660A9031208566DA9031208567EA919
:101A430003120856DFC603120856FCC603120856D3
:101A5300F384031208565186031208565E86031256
:101A63000856718603120856908603120856A686F6
:101A730003120856BA86031208562F870312085614
:101A830094870312085644880312085619890312CF
:101A9300085629890312085638890312085604C4C4
:101AA3000312085628C40312085650C403120856DA
:101AB30078C403120856ACA903120856D3A903121B
:101AC3000856F4A90312085659AA0312085612AC71
:101AD300031208562BAC0312085637AC03120856F0
:101AE3004BAC0312085669AC0312085673AC0312CD
:101AF30008567DAC0312085690AC03120856E3ACAB
:101B0300031208561CAD031208564BAD03120856B8
:101B130099AD03120856E8AD0312085603AE03123B
:101B230008560DAE031208561EAE0312085664AED5
:101B330003120856B6C503120856BE76001208569D
:101B4300E876001208560477001208561777001239
:101B530008562D77001208568A7700120856BD776B
:101B630000120856F97B001208561F7D0012085612
:101B7300527D001208569E7D00120856CA7E00123E
:101B83000856F27E00120856077F00120856177F88
:101B9300001208565B7F00120856BC7F00120856DD
:101BA300CC7F00120856E5BD0312085600BE03128F
:101BB300085629BE0312085643BE0312085668BED0
:101BC3000312085687BE031208569FBE0312085617
:101BD300CDBE03120856E7BE031208569BC6031276
:101BE30008563A96031208564196031208564D9723
:101BF300031208567D9703120856A397031208563B
:101C0300C69703120856E897031208562298031240
:101C13000856889803120856C198031208560D995E
:101C2300031208563A99031208565A990312085692
:101C3300CAB403120856DCB403120856F4B50312EF
:101C4300085681B60312085618BF031208568ABFF6
:101C530003120856C8BF0312085609C003120856D8
:101C6300FFA3031208561BA4031208566AA4031207
:101C7300085686A403120856B7A403120856C7A42D
:101C830003120856B3A503120856BDA5031208563E
:101C9300CAA503120856DAA603120856EEA60312C3
:101CA3000856F7A603120856718903120856B68D13
:101CB30003120856BB8D0312085651C70312085668
:101CC3001BC7031208567EC703120856C8C7031260
:101CD300085654A701120856A5A50112085660A379
:101CE30001120856E7A2011208568EA201120856E5
:101CF30022A201120856F9A101120856EC9F011203
:101D03000856B89F01120856859F01120856699F0D
:101D1300011208568F9E01120856479E011208565B
:101D23007C9C01120856FC9B01120856F99B011278
:101D33000856009B01120856CE9A011208560B9AB8
:101D430001120856369801120856C7970112085611
:101D5300999701120856B9B00112085670B00112D2
:101D6300085628B00112085666AF01120856D9AEBC
:101D730001120856969701120856839701120856C6
:101D83001B97011208560A9701120856CCAE01128E
:101D93000856EB9501120856B59501120856789529
:101DA30001120856199501120856DAAB01120856AA
:101DB300A0EB02120856E89401120856A3910112EF
:101DC3000856949001120856239001120856E88F82
:101DD30001120856B38F01120856A78F0112085635
:101DE300078F011208564E8E01120856218C0112DC
:101DF3000856AD89011208566B89011208563688B8
:101E030001120856EB87011208561A870112085669
:101E13007186011208560D86011208564786011273
:101E230008562CA90112085699E40200000080FB11
:101E3300E473000000000000000000000000000048
:101E430000001010101010100000303000000014BB
:101E530028500000000000000000000000000028DF
:101E630028FC284850FC50500000000010385454FF
:101E7300301814545438100000000044A8A8B0547B
:101E83001A2A2A44000000000020505060ACA89891
:101E9300927C000000606020C00000000000000091
:101EA30000000004080810101010101008080400A7
:101EB300000040201008040810204000000000002B
:101EC300001010D63838D6101000000000000010A3
:101ED3001010FE10101000000000000000000000B1
:101EE30000000000606020C0000000000000FC0053
:101EF30000000000000000000000000000000000DF
:101F03006060000000020404040808101020202070
:101F130040000000003048848484848448300000FA
:101F230000000010701010101010107C0000000052
:101F33000038444404081020447C000000000038AA
:101F430044441804044444380000000008081828D6
:101F53004848887C081C00000000007C404078440E
:101F63000444443800000000003C4480B8C4848426
:101F7300847800000000007C444808101010101002
:101F8300000000000078848448788484847800000A
:101F9300000000788484848C740488F000000000BE
:101FA300000000303000000030300000000000006E
:101FB3000000100000000010102000000408102092
:101FC30040201008040000000000000000FC000096
:101FD300FC0000000000000040201008040810204E
:101FE3004000000000007884848408101000303022
:101FF300000000000038449AAAAAAAB4423C000098
:102003000000001010282828384444EE0000000087
:1020130000F844447844444444F800000000003C81
:1020230044848080808044380000000000F04844ED
:102033004444444448F00000000000FC4440487815
:10204300484044FC0000000000FC424048784840FF
:1020530040E000000000003C448480808E844438CB
:102063000000000000EE4444447C444444EE00007D
:102073000000007C101010101010107C00000000F5
:10208300007C101010101010101090E0000000EEF3
:1020930044485070484844EE0000000000E04040CF
:1020A3004040404044FC0000000000EE6C6C6C5467
:1020B300545454D60000000000EE64645454544C4D
:1020C3004CE4000000000030488484848484483059
:1020D3000000000000F844444478404040E0000021
:1020E300000000304884848484B448380C00000025
:1020F30000F844447850484844E600000000003C9F
:1021030044402018040444780000000000FE9210AC
:102113001010101010380000000000EE4444444436
:10212300444444380000000000EE44442828282892
:1021330010100000000000D6545454546C28282872
:102143000000000000EE44282810282844EE000078
:10215300000000EE44282810101010380000000082
:10216300007C88081020204044FC0000001C101054
:1021730010101010101010101C0000701010101010
:1021830010101010101070000070101010101010AC
:102193001010101070000010280000000000000054
:1021A300000000000000000000000000000000002C
:1021B30000FE00606020C00000000000000000007E
:1021C30000000000000038441C24443E00000000CE
:1021D30000C04040784444444478000000000000BC
:1021E30000003C444040443800000000000C04045C
:1021F3003C444444443E00000000000000003844D6
:102203007C40443800000000001C2420F8202020DB
:10221300207800000000000000003C48483040786F
:102223004438000000C040405864444444EE000079
:1022330000000010000070101010107C000000005F
:10224300000800003808080808080870000000C0EB
:1022530040405C48507048EC0000000000701010D3
:1022630010101010107C0000000000000000F85453
:10227300545454D60000000000000000D8644444C5
:1022830044EE000000000000000038444444443899
:102293000000000000000000F8444444447840E09B
:1022A3000000000000003C444444443C040E000091
:1022B30000000000EC30202020F8000000000000A7
:1022C30000003C4430084478000000000000101077
:1022D3007C101010100C0000000000000000CC4423
:1022E3004444443E0000000000000000EE4428285F
:1022F30028100000000000000000D6545454282881
:102303000000000000000000DC48303048EC000012
:10231300000000000000EE442828101020E0000018
:10232300000000007C481010247C000010101010E6
:102333001010101010101010101087000100260D3F
:1023430024000200010D25000200030D26000200F7
:10235300050D27000200070D28000100090D2900C3
:1023630001000A0D840004000B0D860001000F0D0F
:102373002A000100100D2B000100110D2C0001009B
:10238300140D2D000800CE052E000100150D2F00A1
:102393000100160D30000100170D31000100180D6A
:1023A30032000100D60533000100D70534000100D7
:1023B300190D36000100D805380001001A0D390047
:1023C3000100130D83000200240D63000100E205E8
:1023D30064000100CB0565000100120D6D000100D2
:1023E300230D6E000200CC05430001001B0D4400C9
:1023F30002001C0D450001001E0D460002001F0DCA
:1024030047000800DA0548000100210D4B000100D8
:10241300220D04000100270DA10001002A0D370041
:102423000100290D88000100280D3C000100D90599
:102433000000000000000001363601010001020126
:102443000001030100010401060605020000070163
:1024530000340801000F090401010D0100FF0E08FB
:10246300000017020000190100FF1A0100011B01FF
:1024730000FE1C0100081D0200001F0100012001D5
:102483000001210200002301000F240200002601A5
:10249300000127010008280200FF2A0100072B0181
:1024A30002402C0100002D0100012E0100012F012B
:1024B30000FF30010B1C310800003A0100083B010A
:1024C300000F2F0100000101710101010101110140
:1024D30001013101010101018001100161013B0092
:1024E30014006301730172016201430100011301CE
:1024F30006013D0135000401120100010001000144
:10250300000104010401330133013C0144013201A0
:102513003600000100016501000135008101000161
:10252300050182018301000101037103010301031A
:102533000103010301032203020301031003000348
:10254300000300030003000300030003420300032E
:1025530024030603000300030403120325032303D8
:1025630025032303040304030003000300034403BC
:1025730000030003230300036503210035038103E4
:10258300000305030003000300030302710230018B
:1025930060021102700201020202020280021002B2
:1025A30061023A0041006302730272026202430253
:1025B30000021302380000020002040212020002A9
:1025C30000020002000204020402370037003C024A
:1025D30044020002390000020002650200023502D3
:1025E30081020002050282028302000203007100DD
:1025F300300160001100700031022003500480009C
:102603001000610000001400630073007200620098
:102613004300000013000600000000000400120045
:102623000000000000000000040004003700370031
:102633003C024400000000000000000065000000B0
:102643003500810000000500000083000000C9EE92
:10265300DBDACAD0B0B2C1AAB5C2BFC6BCBCD3C351
:10266300BBA7B5C7C2BCD5CABAC5C3DCC2EBC8B722
:10267300B6A8C8A1CFFBD7A8D2B5D7A8D7A2CEDE1C
:10268300CFDFCDA8D1B6B3CFD0C5C1A2D7E3B4B401
:10269300D0C2D6C2D4B6C7BFB4F3D4ADA3BA003642
:1026A300000100060000000F000000000000000011
:1026B300000000000003FFFF00000403FFFF000011
:1026C300FFFF0FF4010005C4040320000100030B06
:1026D300000000000000000003010F010074170256
:1026E30000E4160300EA160400F0160500F61606C9
:1026F300000217110020171400261715001417FFE6
:10270300FF000003EAF5E5D5D5C5B5A59595858503
:10271300757565655555454535352525151505D615
:102723000F0610DC0FE20F0010F40FEE0F0C101267
:102733001018102410E80FD00FCA0F0A840D024E90
:102743000D05600D07540D0C300D0D420DFF0000FB
:1027530000160F00000B150B020002220F320000BF
:1027630006C010D210D810A00FDE109A0FA60F20AB
:10277300113E114411261132112C110C0E020B04BF
:102783000B0A0708000F0001191618161615230364
:102793000000034948424D181725050200383C3E06
:1027A300363B3B352B432C303017181921301B1D7A
:1027B3001F30303016181920231A1C1E30FA0F1E32
:1027C3001038112A1030101411E410EA10F610F02A
:1027D3001002040201010101090200BE040AE80318
:1027E3000E000400150028000804050A030908FF69
:1027F3001E1E0F040C100C74F712038DE99003B026
:10280300F0900365E4F0121C309003B5E4F0A3F0FC
:102813009003B1F0A3F0120EDA121C36900334E4E5
:10282300F0A3F09027F593FA7902121C9602575100
:1028330074F212038DEAFEEBFF548060699003B0DB
:10284300E0F912141A8A088B09EA4509604F7C00E3
:1028530080010CEC75F003A4F8A9F0743E28F5820E
:10286300742739F583E493F4602CE493F8850882A4
:102873008B83E06870DCAA08EC75F003A4F8743F5E
:1028830028F582742739F583E493C0E0740193F546
:1028930083D082121E33AA08AB0912140EEEFAEF8C
:1028A3006480FB022A00EF5420601D120DDE8A08AB
:1028B3008B09EA4509600A120D42AA08AB091214F2
:1028C3000EEEFAEF642080DAEEA2E0501A90036A6B
:1028D300E0640F700B7900120D0CE96003122A03F8
:1028E300EE6401FAEF80BB542070030229CE750C0D
:1028F30000123ED58B09EA450970107C027D007AEF
:10290300207B009003B0E0F91215647C0079047A0F
:10291300007B00120DBA8A088B098018850882850E
:102923000983A3A3A3A3A3A3A3A3A37401F0850A69
:1029330008850B09E5084509606D7C007904AA0840
:10294300AB09120DBA8A0A8B0B750C01E508240436
:10295300F8E509123C7924FFF0A3E034FF12622D5D
:1029630070CC850882850983A3A3A3A3A3A3A3A3F0
:10297300A3A3E0640170A5850882850983A3A3A3AB
:10298300A3A3A3E054047094850882850983A3A3B9
:10299300A3A3A3A3A3A3A37406F07AB78508828590
:1029A3000983122B2F8087120D8A7C0079017A000C
:1029B3007B00120DBA8B09EA45097009E50C700515
:1029C3007A20124E2FEE64200228E6EF5402600BA9
:1029D300120ED4EEFAEF64020228A5EF5404601934
:1029E3001251921250AC790190036312550B120CE1
:1029F30052EEFAEF64040228A57A007B00022C361B
:102A0300900D011232CD120D2422C082C08374EACC
:102A1300120935851882851983AA82AB83794B12F3
:102A23001C6C7408120B077402F07409120B07AACA
:102A330082AB837950121C6C7413120B07E4125689
:102A4300DA121C8A74160243F374F712038D74E1CD
:102A5300120935EAFEEBFFEE4F60338518828519C4
:102A630083AC82AD83120E027406120B07E0601E64
:102A73007417120B07E0FD7401120B07E0FCEEFA6A
:102A8300EFFB7900120B4AE9600479A48002790014
:102A930002574C74F612038DEAFEEBFF8E828F838E
:102AA300A3A3A3A3A3A3E05440601B125BC9122BEF
:102AB300FD60067AFF7BFF801A8E828F8312407F30
:102AC300FAA3E0FB8003120E2674FE6A700374FF00
:102AD3006B6041125BC9124E73120E98E98E828F9E
:102AE300836006122B28E48005122B287401F07CE6
:102AF300127D0D8E828F8312550B121C90E9F508FF
:102B03007015EE4F60097901EEFAEFFB120D96A9ED
:102B130008024F367508CDAA088E828F83122B2F99
:102B2300E960DF80EAE0240D12454E22E0240C1216
:102B3300454EE0F9120D1E2274F612038DE9FEEAEA
:102B4300FF7A0F7B00121408EA4B60198A828B8389
:102B5300740CF0EEA3A3F0EF8A828B83A3F01250E0
:102B6300957900802FEEF9120DC08A088B09A80809
:102B7300A909E849601C88828983A3A3A3A3A3A30B
:102B8300A3A3A37406125E54E0F9120CD6EEF91255
:102B93000D9C7910024F36C082C08390036AE064B3
:102BA3000F7014EA4B6010900365E064086005E061
:102BB30064047003122BBD02441DEAFCEBFD7A0191
:102BC3007B009003B0E0F912155E22C082C08379C6
:102BD30000EA241DF582EB12407C24FD600B146097
:102BE3000824FD600424FD70010902441D8E828FB8
:102BF30083A3A3A3A3A3A3A3A3A3122C01221240E1
:102C0300C4FB120E98E9228E828F83A3A3A3A3A3EE
:102C1300A3A3A3A3122C016402228E828F83A3A3F6
:102C2300A3A3A3A3A3A3A3124414900356E068226F
:102C33001208BB7F060205A574F412038D74FD12FE
:102C430009358A088B098A828B83A3A3E0F9120DC5
:102C5300C08A0A8B0BAE0AAF0BEE4F7003022D42F4
:102C6300850882850983A3E064F160308508828545
:102C73000983A3E064CD6024850882850983A3E0EA
:102C8300641A6018850882850983A3E064E9600CEF
:102C9300850882850983A3E064E170087900120D39
:102CA30096E9706C850882850983A3E0C0E074020D
:102CB300120B07D0E01243F8EEF0A3EF123723858F
:102CC3001882851983AA82AB837005120C3A80039C
:102CD300120E807402120B07E064E970338E828F48
:102CE30083122D4E750A01780A120877750AE9785E
:102CF3000A120877E508240CF582E5091232151249
:102D03003700FCA3E0FD8A828B8312371A1208BBBB
:102D13008E828F83A3A3A3A3A3A3A3A3A3E064028D
:102D230070108E828F83A3A3A3A3A3A3A3A3A374CF
:102D330006F0850882850983A3A3E0F9120D9C128E
:102D43000D8A900D05122A060232D2E0F8A3E0F9AB
:102D5300E8FAE9FB2274F412038DEAFEEBFF75082F
:102D6300008E828F83A3A3A3A3A3E0604275080808
:102D73008E828F83A3A3A3A3A3A3A3A31243278B0F
:102D83000BEA450B601075082C8E828F83A3A3A3D7
:102D9300A3A3E0D2E0F08E828F83A3A3A3A3A3E037
:102DA300540364016003022E41430811022E41EED5
:102DB30024181232DF6033EE241A1232DF700F123E
:102DC3002C1D7003A3E06970757508228070EE24D2
:102DD3001BF582EF122E46241AF582EF12372BEEE3
:102DE3002419125BFD120CC48054122C0A70037553
:102DF3000801122C1D7003A3E0697006E508D2E1F7
:102E0300F508E50860158E828F83A3A3E07006E5BD
:102E130008D2E58004E508D2E6F508122BF0640138
:102E23007006E508D2E0F5088E828F83A3A3E060E5
:102E33000D122E5464016006E508C2E0F508A908E6
:102E43000232D712406A122E4D22E0FCA3E0FDEEBF
:102E53002212406412409CF9120E86E922C082C0FD
:102E63008379018A828B83A3A3E0C394024001196F
:102E73008A828B83A3A3A3A3E0C3940240027900B5
:102E83008A828B83A3A3A3A3A3A3A3A3A3E064F82E
:102E93007003A3E0F460458A828B83A3A3A3A3A357
:102EA300A3A3A3A3E064F97003A3E0F4602E8A82D2
:102EB3008B83A3A3A3A3A3A3A3A3A3E064FA700395
:102EC300A3E0F460178A828B83A3A3A3A3A3A3A382
:102ED300A3A3E064FB7003A3E0F4700279008A8289
:102EE3008B83A3A3A3E0F8900353E0686002790007
:102EF30002441D74F012038D74DE120935EAFEEBF1
:102F0300FF8E828F83A3A3A3A3E0600E900D031211
:102F13004F2D6006900D03122A067403120B07ACA3
:102F230082AD838E828F83A3A3A31250E9125A1713
:102F3300E9600F7403120B07AA82AB83120D3CE9FD
:102F430070087901121C4202320AEE241B12406FF0
:102F53007410120B071250AC7409120B07E06021B6
:102F6300741A120B07E0FD7404120B07E0FC8E8247
:102F73008F831255097901120B4AE96004790280A3
:102F8300C37403120B07AA82AB83120D36E9F50A49
:102F93007409120B07E0702A90034DE06024742239
:102FA300550A6422601C7442550A644270CF74202F
:102FB300120B07123228600A7420120B07123221F7
:102FC30070BBE9A2E650417403120B07AA82AB83DC
:102FD300120D2AE97003022F457420120B071240C9
:102FE3007F6403700F7420120B07A3124F1FA3E01B
:102FF300640D60147403120B07AA82AB83120EAA2A
:10300300E96401700302320AEE242C1232121235E3
:10301300367003A3E069701C7508007808120877FE
:103023007808120877EE242E125BFD12322E123727
:103033001A1208BB7409120B07E070030230E7127F
:10304300322E12550B120EFE8A088B09EA450970BF
:10305300030231847404120B07E0F88E828F83A37A
:10306300A3E028F8A3E03400F9E8240D1232198A0A
:10307300828B83A3A3A3E068601CE88A828B83A36B
:10308300A3A3F09085CB120AE4850882850983A364
:10309300A3A3A3120AF07904E9120B071259F42A25
:1030A300F8A3E034008882F583A3AA82AB831213CA
:1030B300F68A0C8B0D8C0E8D0F850882850983A3F0
:1030C300A3A3A3780C12080F400302320A9085D3FE
:1030D300780C1209C4850882850983A3A3A3A37866
:1030E3000C120AC8900365E064046008E064096098
:1030F3000302320AE50AA2E540030231C2EE242E9E
:103103001232DF851882851983F0EE242F1232DF05
:10311300C0E07401120B07D0E0F0EE24301232DF6E
:10312300C0E07402120B07D0E0F07414120B07E036
:1031330064017027740E120B07124075EE241212ED
:1031430032DF687003A3E0697011740C120B07126D
:103153002C1770077414120B07E4F0EE24241232B8
:10316300121206A67404120B07AC82AD8374071205
:103173000B07AA82AB83120C4074041208BB023201
:103183000A9003AAE0640160030230E77420120B83
:10319300071232287009E50AA2E650030230E774E9
:1031A30010120B07E0F47003A3E0F4605AEEFCEF97
:1031B300FD7403120B07AA82AB83120D488048A249
:1031C300E650447420120B0712551A701A741A121F
:1031D3000B07E0640270307403120B07AA82AB83FF
:1031E3007900120E7480207420120B0712322170A2
:1031F30016741A120B07E06404700C7403120B07A5
:10320300AA82AB83120E6874220258C6EE240BF511
:1032130082EF12406A22F582E91250C5F822125B4E
:10322300DBE064072212409C640622EE242A12404B
:1032330067122E4D24121240672274F412038DEA92
:10324300FEEBFF8C088D099005D6E0600F122C1D54
:103253007003A3E0697005120CB2804F7900125419
:10326300FE120CE28A828B83E58245836035A3A339
:10327300A3A3A3A3E05418602AE508241BF582E561
:10328300091232151206AA1239131232151206AA9E
:10329300EE2418125BFD1232B0120CF474041208FF
:1032A300BB800879001232B0120CB880278E828F4F
:1032B30083A3A3A3A3A3A3A3A3A3122E4D240BF51C
:1032C30082EF1232C9223400F5831240C4FB227408
:1032D300031208BB7F040205A5EE2417F582EF1243
:1032E30050C52274F712038D74F7120935EAFEEB09
:1032F300FF900365E06403600DE064016008E0642F
:103303000960030233B08E828F83A3E0707E7C005A
:103313007D007A027B00121C3CEE2402FAEF123C81
:10332300801240759003561250AC7953121C727977
:10333300001233B5E06409600312374885188285AB
:10334300198374011250339003657404F0740112ED
:103353000B07AA82AB83794A121C6C7401120B0708
:10336300AC82AD837A5B7B03121C5A900356125ACC
:103373000D7A03123752900350E0A2E35004D2F0C7
:103383008002C2F0125020122A03801E8E828F8385
:10339300A3AE82AF83FC7D007A037B10121C3C8EAC
:1033A300828F83E0F91233B5E4F0120D72740902CF
:1033B300574E9003631232CD120C5290036522C014
:1033C30082C083900334124F2D701F900365E01465
:1033D300600924FC600A14600C800F90033C803267
:1033E300900338802D90033A8028E84960089003C1
:1033F300351236FA700C8A828B83A3E0F9120C46DD
:10340300801B9003351239AF7005120EC8800E90E1
:1034130003D2124F2D6006124F1F121E3302441D9A
:1034230074F412038D74FB1209358A088B097A0F21
:103433007B001214088A0A8B0BAE0AAF0BEE4F7097
:103443000302352A8E828F831256D87950121C6C50
:10345300850882850983A3E0600302351290036324
:10346300E0F47003A3E0F46034900363E064FE705F
:1034730003A3E0F46027851882851983123536701B
:1034830003A3E0696017850882850983A374EA12A0
:1034930037307A637B037950121C728072851882ED
:1034A300851983125BBC1250AC7A567B0379531295
:1034B3001C6C9003561250E31250AC7A597B03797B
:1034C3004B121C6C7A587B0379E1121C6C90036AD3
:1034D300E0C3940F5021900358E0C0E07402120B34
:1034E30007D0E0F07404120B077401F004120B0709
:1034F300AA82AB83121C84750A00780A12087778B3
:103503000A120877900D35E0F91237111208BB85BE
:10351300088285098312352FA3F09003657403F0A5
:10352300EEFAEFFB12509574050232D4A3E08E82BB
:103533008F8322125BC0E068221245552274F51274
:10354300038D74D81209358A088B098A828B83A369
:10355300A3A31240A17415120B07AC82AD838A8218
:103563008B83A3A3A3A3A3A3A3A3123700FAA3E06C
:10357300FB120D787415120B07E0706B85088285BA
:103583000983A3A3A3A3A3A3A3A3E0C3940B4057BB
:103593008E828F83A3A3A3A3A3A3A3A3E064027038
:1035A30046EE240B1232DFF4703D900365E06402B3
:1035B300603AE064066035900334124F2D600512C3
:1035C30036FA604F900365E064086005E0640470B8
:1035D300167417120B07E0F9741C120B07AC82ADBB
:1035E300831254FE120D7E74280260DA90033412A3
:1035F3004F2D701F75080078081208777808120895
:1036030077EE2410123212125C15123D6812371A2B
:103613001208BB8E828F8312547A123C9212407529
:103623007402120B071250ACEE240D1232DFC0E00D
:103633007404120B07D0E0123723F508A3E0F50951
:10364300740F7808120AB97405120B07E508F074B1
:1036530019120B07E0C0E07406120B07D0E0F074F8
:103663001B120B07E0C0E07407120B07D0E0F074E5
:1036730016120B07E0C0E07409120B07D0E0F074D8
:1036830017120B07E0C0E07408120B07D0E0F0EE4E
:1036930024101232DFC0E0740A120B07D0E0F0747A
:1036A3001A120B07E0C0E0740B120B07D0E0F074A2
:1036B30027120B07E0C0E0740C120B07D0E0F07484
:1036C3001C120B07A982AA8389088A09750A007844
:1036D3000812086F7C087D007410120B07AA82ABD6
:1036E30083124A4A1208BB851882851983AA82ABC2
:1036F30083120C4C0235EA1239B5640122E0F98ACF
:10370300828B83A3A3A3A3A3A3A3A3A3E0229003D6
:1037130063125A119003591232CD120E38740222D9
:10372300F0EE240B1250C2221250C5FA22F07A5640
:103733007B03795312373B22121C727A597B03792C
:103743004B121C72229003631232CD120EF8227BAD
:1037530000121C3C900359125A117A047B00121C6C
:103763003C22F0125C202274F212038D74F81209C9
:1037730035EAFEEBFF8C0A8D0B890C8518828519BF
:1037830083AC82AD8375838575828E74081207CFEF
:10379300F50DEEFCEFFD851882851983AA82AB83B4
:1037A3001253DB7003750D019003B1803BEEFCEF08
:1037B300FDE508240BFAE50934001253DA601E858F
:1037C3000882850983A3A3E0650C701185088285AF
:1037D3000983E0650A7004A3E0650B6038E50824FB
:1037E30014F582E509123215123C8AE50845096091
:1037F30024E50DA2E040B6850882850983E0650AC9
:103803007004A3E0650B70D5850882850983A3A3A3
:10381300E0650C70C8AA08AB097408022C33C08297
:10382300C0839003B102441A74F712038D9003B15D
:103833001240C48012EA2414F582EB1232151240AE
:10384300A11214AAEEFAEFFBEA4B70E99003B1E47C
:10385300F0A3F00257517F070205A574F112038DFF
:10386300EAFEEBFF890A8C088D098E828F83E08C38
:10387300828D83124331AE82AF83E0124B0A124A28
:103883007BC4124B0A12391CE054038C828D8312C1
:103893004A79A2E2E4338C828D83124A781313139C
:1038A300541F124B0A124A77A2E7E4338C828D83AA
:1038B300A3A3A3A312391C8E0C8F0D750E00780CD5
:1038C30012086F7C087D00E508240712598012084E
:1038D300BB1259EB8E0C8F0D780C12086F7C037D95
:1038E30000E508240F1259801208BBE50AC3940FA0
:1038F30040148E828F83A3A3A3E0C0E01239131276
:103903003215D0E08006123913125E48F00238599E
:10391300E5082412F582E50922A3A31243350EAF6D
:10392300832274F412038D74F9120935EAFEEBFF56
:103933008908900334124F2D600E1239AF7009EECF
:10394300FAEFFB120EC2805F900363E06E7003A375
:10395300E06F70537401650860097A777B03125333
:10396300DB70447A007B02123ED98B0BEA450B7065
:1039730036900366120AE4851882851983120AF0C9
:1039830090036CE0C0E07404120B07D0E0F0740500
:10399300120B077401F07406120B071256D8120C9F
:1039A30010E9609B120C1674070232D41239B56405
:1039B3000222125BDCA3A3A3A3A3A3E02274F51248
:1039C300038D8A088B098A828B83A3AE82AF83E03F
:1039D300F9120C6A8E828F83E064EB600C85088297
:1039E300850983A3E064E17009850882850983A3BF
:1039F300E4F0122A03750A01780A1208778508820F
:103A0300850983A3E0F5087808120877790012374F
:103A1300111208BB120D8A0260DDEAF0A3EBF0027B
:103A2300441D74F612038D9003B4E0701B7C00797F
:103A3300017A007B00120DBAEA4B600C8A828B83F9
:103A4300124F2D6003120D18024F36C082C083122D
:103A53003EC1401079FF120DB4E9F89027F9E493C1
:103A6300C398500479018002790002441D74F01256
:103A7300038D8A088B09890B750C008A828B83A3BB
:103A8300A3A3A3A3A3A3A3E0F9120DC08A0E8B0FD4
:103A9300AE0EAF0F750A01EE4F6003023B4E850871
:103AA30082850983A3A3A3A3A3A3125A0D85088226
:103AB300850983A3A3A3A3A3A3A312484A12550B67
:103AC300120DA88A0C8B0DAE0CAF0DEE4F700302D6
:103AD3003C718E828F83A3A3A3A3E4F0A3F0E50834
:103AE300240B123C7DE0C0E012320FD0E0F0120E46
:103AF3009EEE240CF582EF124E6FE508240EF5823C
:103B0300E509124072EE240EF582EF1250A9750CEE
:103B130001EE2406F8EF123C79547FF0A3E054FC45
:103B2300125C72E054046003023BD4900D09124806
:103B33003B74077808120A368E828F83A3A3A3A34C
:103B4300A3A3E04508F0A3E04509F08E828F83A389
:103B5300A3A3A3123C8874077808120AB9E5085492
:103B630007F508E50B607A8E828F83A3A3A3A3A333
:103B7300A3A3A3A37402124A7C240D12454AE0A214
:103B8300E2500B9003511250E3A3A31250ACE5088B
:103B93007003023C46EE2406F8EF3400F9E8FAE934
:103BA300FB8A828B83E0547FFCA3E054FCFDE50891
:103BB30024FFF508E434FFF50974077808120A3680
:103BC300EC4508F8ED4509F98A828B831250AC80E5
:103BD300728E828F83A3A3A3A3A3A3E04480023B9B
:103BE3004DE5087005750A0080598E828F83A3A363
:103BF300A3A3A3A3E054206012121402EA547F2467
:103C03005F8E828F83A3A3A3A380238E828F83A33C
:103C1300A3A3A3A3A3E05410600A121402EA540F4F
:103C2300240A80DD8E828F83A3A3A3A37401F0A350
:103C3300E4123C927404123ED08B09EA45097003E6
:103C4300124E62E50CA2E050288E828F83A3A3A3B9
:103C5300A312573EF9EEFAEFFB120DAEE960121212
:103C63004F23600312405AEEFAEFFB1214AA750AAF
:103C730000A90A0258C91251A622FAE5093400FB29
:103C83008A828B8322A3A3E0F508A3E0F50922121D
:103C93003C962212599CA3A3A3A3A32274F4120358
:103CA3008D74F71209357E00120DC0EA4B700302C2
:103CB3003D618A828B83A3A3A3A3A3A3A3A3A3E0AE
:103CC30064066003023D618A828B83A3A3A3A3A33B
:103CD300A3A3E0FF8A828B8312455DE0C0E07408F2
:103CE300120B07D0E01240951253E11250AC120DA3
:103CF300D2EF54086066851882851983125A0D7AAB
:103D0300007B00120DA28B0BEA450B704F900363EF
:103D1300124185121C9C7C007D007A007B00802868
:103D23008E828F8312407FF47003A3E0F4602D90A2
:103D33000363123D6812550B121990E9641A601C53
:103D43007C007D00EEFAEFFB120DA28A0A8B0BAE0C
:103D53000AAF0BEE4F70C97900121CA27E01EEF977
:103D630074090232D4123D6C22E0FCA3E0FD8E8282
:103D73008F8322C082C083EA4B70059003B580060F
:103D83008A828B83A3A3123F8560258A828B83A3B8
:103D9300A3A3A3A3A3A3E0540860E5EC4D60158A95
:103DA300828B8312407F6C7003A3E06D70D280041A
:103DB3007A007B0002441D74F212038DEAFEEBFFCE
:103DC300890A8C088D097A107B001214A4EA4B60CF
:103DD3003F8A828B83A3A3A3A3A3A3A3A3A3E412D6
:103DE3004083A3E50A125BE2A3123E1D8A828B8302
:103DF300A3A3A3A3E4F0A312408FA3F0125A76EA7D
:103E0300240CF582EB124321123E16A3A3F0A3F078
:103E1300022C36A3F08A828B8322A3A3E508F0A3A6
:103E2300E509F02274F412038DEAFEEBFF89088C96
:103E33000A8D0BEE4F6055740165087014790112F9
:103E43000DB4E9F89027F1E493C398500F791180EA
:103E53006A74046508702F123EC140F18E828F830D
:103E6300A3A3A3A3A3A3A3A3A3E508124331A3126C
:103E730061678E828F83A3A3E4F0A3F09003B5124E
:103E83004F2D6021800D7402650860D079C1802BAD
:103E9300E0F8A31250DCA3A3123F8588828983A391
:103EA300A370ED80039003B5EEF0A3EF123ED08B29
:103EB3000BEA450B7003124E6279000232D7790484
:103EC300120DB4E9F89027EDE493C39822F0123E63
:103ED300D5227A207B009003B0E0F912157022C03E
:103EE30082C083E9F879009003B5801D8A828B83B1
:103EF300A3A3A3A3A3A3A3A3A3E068600574FF687C
:103F03007001098A828B83A3A3123F8570DE02446A
:103F13001D74F712038DEA4B70059003B580068A72
:103F2300828B83A3A3123F8560248A828B83A3A3FE
:103F3300A3A3A3A3A3A3A3E06970E4EC60148A8200
:103F43008B83E0240D1259FEA2E240D380047A0051
:103F53007B00025751C082C0839003B580068A82DA
:103F63008B83A3A3123F8560128A828B83A3A3A3AF
:103F7300A3A3A3A3A3E06970E580047A007B0002F6
:103F8300441D1232CDEA4B2274F212038D8A0A8B3E
:103F93000B8C0C8D0D750800750900EA450B602E1E
:103FA3009003B580068E828F83A3A3123FD8601E31
:103FB300AC0CAD0DEEFAEFFB850A82850B83121E66
:103FC30033E9640170DFEEF8EFF988088909AA087C
:103FD300AB09022C36E0FEA3E0FFEE4F2274F7128A
:103FE300038D9003B51240757C007D00800DE8FCC5
:103FF300E9FD88828983A3A3124075E8496030EA0A
:10400300687002EB6970E79003B512550BE86A70AC
:1040130002E96B88828983A3A37008124075900319
:10402300B580091240758C828D83A3A31250AC0214
:10403300575174F712038DEAFEEBFFEE4F60151232
:104043000DCC1240A7124F23600312405AEEFAEF31
:10405300FB1214AA025751EE240C1240671240BC03
:1040630022EE241DF582EF3400F58322F582EF1250
:10407300406A12441422F582EF12406A12409C22D5
:1040830012408722125BEAA3A3A3A322124087A3B1
:10409300A322123E1712409C22125BD5E022E0FEBF
:1040A300A3E0FF228E828F83E0241C12454E124030
:1040B300BC8E828F831240BC221240C4FB1214AA0E
:1040C30022E0FAA3E022C082C083EAFCEBFDEC4DC0
:1040D300700479058044EC24FBF582ED34FF124F24
:1040E3002B7007124120E0F4600512140E80E39058
:1040F30003B0E0C0E0124120D0E0F09027EEE4935B
:10410300F97AB77B03121438E96401700B7A007BE8
:1041130020124E6679008002790402441DEC24FFCC
:10412300F582ED34FFF5832274F412038DA2AFE41C
:1041330033F508C2AF9003B7123FD86038EE24FBC3
:10414300F582EF34FF124F2B7A007B209003B0608F
:1041530005124E698005E0F9121444E4F50AF50BE3
:10416300780A120873EEFCEFFD7AB77B0312143260
:1041730074021208BBE508A2E092AFEEFAEFFB026D
:1041830032D7125A11851882851983AA82AB8322EA
:1041930074F212038D74FC120935EAFEEBFF750A03
:1041A300FE750BFF120D90E960057911024316EEBF
:1041B30024151232DF6037900D22E0C43354E0F847
:1041C300E0333354FC48C0E0EE2415123212D0E041
:1041D3001243311243278B09EA45096011750AFF1F
:1041E300EE240F1232DF44041250BAD2E0F08E8272
:1041F3008F83122BFB6006EE241212431EEE241350
:104203001232DF70109027F4E493C0E0EE2413120F
:104213003212D0E0F08E828F83E0A2E75004540381
:10422300801CEE24141232DF7015900342E0C0E0CC
:10423300EE2414123212D0E0F0900342E004F0EEC8
:1042430024111232DF640170169005CBE0600D90EB
:10425300034DE0700A8E828F83E0700312431B8E3E
:10426300828F83E064017013EE240B1240796402A1
:104273007009EE240F1232DF4440F085188285194D
:1042830083AC82AD83EEFAEFFB120DF68A088B093D
:1042930074FE650A700374FFF470098E828F83A322
:1042A300A312598CEA450960668E828F83E0C0E0D1
:1042B3007401120B07D0E0F07402120B07125A7A42
:1042C3007401120B0785820C85830D780C12087319
:1042D300EE240F1232121206AAEE240E1232DFF56A
:1042E3000C780C1208779003561206AA7407120B67
:1042F30007E0F9AC0AAD0B120DF074071208BBE925
:10430300FE74106E700BAA08AB091214AA80027E09
:1043130010EEF97404022C33EE2411F582EF1240EF
:104323006AE4F022A31232CD79FF121D62221243F6
:104333003522F08E828F83A322C082C08374DE1263
:1043430009358A828B83A3A3A3A3124075740E122B
:104353000B07E8F0A3E912440B740C120B07124489
:1043630004240DF582EB1232E2C0E0741A120B073B
:10437300D0E0F01258D9EB1240727420120B0712DE
:1043830044042415F582EB1232E2C0E07408120BE8
:1043930007D0E0F0EA241CF582EB1240727412128B
:1043A3000B071244042411F582EB1232E2C0E074CD
:1043B30009120B07D0E01243F874FFF07401120BDB
:1043C3000774FFF07402120B0774FFF09085CB1291
:1043D30006A67404120B07AC82AD837407120B0795
:1043E300AA82AB83120C4074041208BB79007422B6
:1043F3001208BB80251243FC22F08518828519839D
:1044030022E8F0A3E9F0EA22123E17A31244132292
:10441300A3E0F8A3E0F92212550BD083D08202085F
:104423005374EC12038D74EE1209358A128B13EC5C
:10443300FEEDFF89097426120B0712598C7428129A
:104443000B07E0F5107429120B0712453F742B126A
:104453000B07E0F50EA3E0F50F7508107A1E7B003D
:104463001214A47402120B07124E737402120B0778
:10447300124F2D7003024538851882851983AA824D
:10448300AB837950124D4E12550B7402120B071267
:10449300455DA3124E737410120B07126169740207
:1044A300120B07E0240B12454A7402F0120B071299
:1044B300455D7402F0120B07125BCD125A7A740237
:1044C300120B07125520E509F07402120B07E024C2
:1044D3000C12454AE510F07402120B07124547E52A
:1044E30012F0A3E513F07408120B07E50CF0A3E533
:1044F3000DF0740A120B07E510F0850E82850F8309
:10450300C082C083740D120B07AC82AD83D083D0FD
:104513008274031207CFF97402120B07AA82AB83CA
:10452300120D96E964017005750800800874021283
:104533000B07124060A90874120259A3E0F50CA3FB
:10454300E0F50D22E0241C12454E22F8A3E01245AB
:1045530055223400F98882898322125513A3A3A319
:10456300A3A32274EE12038DEAFEEBFF8C088D09E0
:104573008E828F83A374081250FBE060088E828FB3
:1045830083A37410F01232DC60098E828F83A3E060
:104593002408F0EE24151232DF60088E828F83A385
:1045A300E004F08E828F83A3A3A3A3A3A3E06019E7
:1045B3008E828F83A3A3A3A3A3A3A3E0C333240265
:1045C300F88E828F83A3E028F0EE24111232DF608D
:1045D30005750B0E8003750B008E828F83A3C0823B
:1045E300C083EE240D1232DFD083D082F8E0282579
:1045F3000B8C828D83F0EE24111232DF6005124A98
:104603005A28F0850882850983E0C39475400975AB
:104613000800750900024748E0FA7B00125B287026
:1046230003024748EEFAEFFB120DFCEA8508828588
:104633000983124E74EE2402F8EF12353C124842FD
:10464300124784F0EE24040808EF12353C124C8420
:10465300A3124784A3A3F0EE241312476AF0EE24B7
:104663001412476AA3F0750A08EE24161232DF60AB
:1046730010EE2418125A0AE5082408125C0B750A76
:10468300101232DC6016EE241A125A0A850A0CE55F
:1046930008250C125C0B7408250AF50A8E828F8399
:1046A300A3A3A3A3A3A3E06059EE2407F510EF345B
:1046B30000F511851082F583E0C0E01247511232F4
:1046C30015D0E0124774E0C0E0124751123215D002
:1046D300E0124774A312475D12086F85108285119B
:1046E30083E0C333FCE433FD850A0CE508250C1293
:1046F30059801208BB851082851183E0C333250AD4
:10470300F50AEE24151232DF600BC0E01247511296
:104713003215D0E0F012320F12475D12086FEE240B
:104723000D1232DFFC7D00850B0A8E828F83A3E09E
:10473300F8E50828F8E5093400F9E8250AFAE9124A
:1047430059831208BBAA08AB097F0A0205A5850A8B
:104753000CE508250CF582E50922E0F50CA3E0F54C
:104763000D750E00780C2212406712478EA3A3A387
:1047730022F0050A8E828F83A3A3A3A3A3A3A3A3DB
:1047830022A3A3125C76A312478E22124C88A3A302
:104793002274F612038D8A828B83E0FC90035312FA
:1047A300483B74027808120A36EC4508FCAD09EA66
:1047B300241212483574067808120A36EC4508FCB0
:1047C300ED4509FDEA2415F582EB1232E260047827
:1047D3000180027800E4C8F9ED49FDEA2411F5826D
:1047E300EB1232E2F508880974097808120A36EDEB
:1047F3004509FDEA2416124835740B7808120A3667
:10480300ED4509FDEA2417124835740C7808120A9D
:1048130036ED4509FD8A828B83A3A3A3A3A3A31229
:10482300483B740A7808120A36ECFAED4509FB0294
:104833004F36F582EB12406AE0F50875090022E075
:1048430085088285098322A3E0F985088285098387
:104853002274EE12038D8A0A8B0BECFEEDFF750FAB
:1048630001E9C3940850057900024A478E828F8379
:10487300E9F0124CADE96003750F00124C918E8282
:104883008F83124CDBEE1258DAEF124CD0C0E0EEFD
:104893002411123212D0E0124CC8C0E0EE241212DE
:1048A3003212D0E01243317408125994A3A3A3E047
:1048B3006015124C79EE2413F582EF1250A98E8203
:1048C3008F83A3E02408F08E828F83A3A3A3A3A3E3
:1048D300A3A3A3E060218E828F83A38582088583AF
:1048E30009124CBCEE2415F582EF1250A9850882FB
:1048F300850983E02408F08E828F83A3A3A3A3A357
:10490300E0601A8E828F83A3858208858309124C07
:10491300A08E828F83A3A3A3A3A3124A6CEE2419B0
:1049230012431EEE241B12431EA31250F3E0700326
:104933000249DBEE2419F8EF3400F98E828F83A34A
:10494300858208858309E0FAE50A2AF582E50B12D8
:1049530032E288828983124A6CFAE50A2AF582E5F3
:104963000B1232E2C0E0EE241A123212D0E0124AE5
:104973006C88828983E06059F89027F7E493C398A1
:10498300500575110C8008EE24191232DFF5118ED3
:10499300828F83A3E0F8E50A28F50CE50B124A5051
:1049A30012086FE511C333FCE433FD7AB07B0B12BD
:1049B3004A4A1208BBEE241B12321274B0F0A374DD
:1049C3000BF0E511C333F8850882850983E028805D
:1049D30006EE2418125E45F08E828F83A3E0F88ED4
:1049E300828F83E0C398500302486AA3E0FA8A08DF
:1049F300E50A2508F8E50B3400F9EE241DF582EFEE
:104A030012529B124A7CC39AC0E0EE241712321250
:104A1300D0E01250B2602BEE2417F8EF3400F9887F
:104A23000889098882F583E024F212519C240EFA46
:104A3300A3E03400FB88828983124E73124A5AC35F
:104A430098F0A90F02474C1213DE7403223400F5C9
:104A53000D750E00780C2290034EE0F9120B50E90D
:104A6300F8850882850983E022F085088285098319
:104A7300E004F022A3A3A3A3A3F08E828F83E022FA
:104A830074F412038D8A088B09EA124B11F0EA13AE
:104A930013543F124B0AA3A3A3F0EAC41313124BFC
:104AA30011A3A3F0EB124B03124B1B7409780A12E8
:104AB3000AB9124B01124B1A740A780A120AB9E5A1
:104AC3000A5401C0E0EC2418F582ED123215D0E04F
:104AD300124B20740B780A120AB9124B01A3124B22
:104AE3001A740C780A120AB9124B01A3A3A3A3A345
:104AF300A3A3A3F0740D7808120AB9022E41E50AA4
:104B030054018C828D8322540F8C828D8322540313
:104B13008C828D83A3A322A3A3A3A3A3A3F08A0AB6
:104B23008B0B22C082C08379008A828B83A3A3A3C9
:104B3300A3A3A3E090034D600FE070228A828B83CE
:104B4300A3A3E07019098016E060138A828B831295
:104B53005502900356E06A7003A3E06B70E70244CA
:104B63001D74F012038D8A0A8B0B890C8C088D0936
:104B7300124CAD124C91850882850983124CDBE5FA
:104B8300081258DAE509124CD0C0E0E5082411F503
:104B930082E509123215D0E0124CC8C0E012391375
:104BA300123215D0E01252A374081252CD601112C2
:104BB3004C79E50824131252971252A3E02408F00B
:104BC300850882850983A3A3A3A3A3A3A3A3E0606A
:104BD30017850882850983A3124CB8E508241512AA
:104BE3005297124A7C2408F0850882850983A3A37F
:104BF300A3A3A3E06019850882850983A3AE82AFCE
:104C030083124CA0850882850983124A7704F0AA8F
:104C130008AB09120E0EE9F50D7056850882850959
:104C230083A3A3A3A3A3A3124C847014E0FA8A0E54
:104C3300E50A250EF8E50B12509EE50CC39A802178
:104C4300124CB8E8240EF8E912509E90034EE0F996
:104C5300120B508E828F83E0F8E50CC39824F2C3C5
:104C630099C0E0E5082417F582E509123215D0E072
:104C7300F0A90D0258C9E50A2408F8E50B3400F938
:104C830022124C8822E0850882850983A322850AA3
:104C930082850B83A3A3124CF1E0F9EA22E0F8E545
:104CA3000A28F582E50B1250C5228A828B8312589B
:104CB300CE120E0822AE82AF83E0F8E50A28F8E5AB
:104CC3000B3400F922124D04A3A3A3E02212406A7D
:104CD300E8124CFDA3A3E022A3A3A3A3A3A3A3A32E
:104CE300A3124CFD124CF1A3A3E0F9EAF822E0FA77
:104CF300850A82850B83A3A3A322F0A3E9124D04A3
:104D030022F0850A82850B83A3A3A3A322C082C0BA
:104D1300837AC57B0379E2121C6C7AC57B03024458
:104D23001DC082C08390035602441AC082C083749C
:104D3300FE120935851882851983AA82AB83794BC4
:104D4300124D4E12550B74020243F3121C6C85185C
:104D53008285198322C082C083794A121C6C024463
:104D63001D74F612038D9003CDE0FE04F0EEF912EC
:104D73000DC08B09EA450970EDEE60EAF9024F3682
:104D830074F012038DEAFEEBFF8C088D09890A7417
:104D930010120B07E0F50B7411120B07E0F50C1260
:104DA3000EFEEA4B7013E50C7042A90AAC08AD097C
:104DB300EEFAEFFB120F16806EE50A6021EA240279
:104DC300F582EB1232E2850A082508F8E434001371
:104DD300E813F070098A828B83A3A37401F0E50CB6
:104DE3006045E50B70068A828B83E4F07401650CE1
:104DF3007035E50B9003D47004E4F0802AE004F0EE
:104E0300900D0AE0F89003D4E0C398401AE4F090C0
:104E13000359E06E7003A3E06F700CEEFAEFFB79B9
:104E230001120C64124E2D0258C97A017B009003C3
:104E3300B0E0F912156A22C082C08374016A70015E
:104E4300EB70077A01124E648012900D01124E73BB
:104E5300EA4B6005122BBD8003124E2D02441D7ACE
:104E6300207B009003B0E0F912143E223400F58356
:104E7300EAF0A3EBF022C082C083900D03023A1D37
:104E8300C082C083900D05023A1D74F612038D751E
:104E9300084275090378081208737C6E7D007A2135
:104EA3007B0012151C74021208BBE9F508120B8C67
:104EB300E94208900461124F2D6009124F1F121E20
:104EC30033E94208120B1AE9FE1217FEE9F8E50866
:104ED3004E48F9805E74F612038D121C3675084233
:104EE300750903780812087375086E750900780848
:104EF3001208737C007D007A217B0012152874044C
:104F03001208BB120B92900463124F2D6006124FCE
:104F13001F121E33120B201218048017125BDC229F
:104F2300EE240CF582EF3400F583124414E8492291
:104F33001208BB7F020205A574F612038D74FF12DB
:104F430009357E0075084275090378081208737CD9
:104F53006E7D007A217B0012151C74021208BBE9D6
:104F63006003025005780812087375086E8E09787D
:104F7300081208737C007D007A217B0012152E74C1
:104F8300041208BBE9707B900356E064FE7003A330
:104F9300E0F4606E0E900365E064086005E064046D
:104FA300705C851882851983EE1250337A6D7B030A
:104FB3007943121C727A6A7B037947121C727A5BFB
:104FC3007B03794A12373B7A637B037950121C7255
:104FD3007A567B037953121C727A6B7B03795412D2
:104FE3001C727A587B0379E1121C72900350E0A281
:104FF300E35004D2F08002C2F01250208004121C4D
:10500300361E120B98900465124F2D6006124F1F27
:10501300121E33120B2CEEF97401024F33A2F0E48B
:105023003385188285198312503C7952121C7222DF
:1050330012503C7942121C7222F0AA82AB83227472
:10504300F612038DE9FEA2E05026750842750903A6
:10505300780812087375086E7509007808120873CA
:105063007C007D007A217B0012152874041208BB92
:10507300EEA2E35003120B9EEEA2E2500E900467E1
:10508300124F2D6006124F1F121E33024F36AA080D
:10509300AB099003B0E0F9121414223400F9E508C7
:1050A300241DF582E50912406AE8F0A3E9F0221213
:1050B3005998A3A3E022A3F0EE24151250C222F5BF
:1050C30082EF3400F583E022EE240BF582EF1250D9
:1050D300D5223400F583E0F8A3E0F988828983229E
:1050E300E0F81250E922A3E0F98E828F83A3A32272
:1050F300F0EE241812406722F0EE241612406722C5
:1051030074F412038DEAFEEBFF7A007B04124E3136
:105113001251921250AC9003657409F0120E1A8A60
:10512300088B09AC08AD09EE241312321212550B89
:105133001253DB640170487A0F12518560418A82F1
:105143008B83740212519CFAA3E0FB8A828B83A3A4
:10515300E0FC8A828B83A3A3E0FBEC8508828509AC
:1051630083A3A3124E748882898312550F12484277
:105173001250B9FAA3E0FB794A121C721250910241
:1051830032D77B001214088A088B09EA450922905A
:105193000336124414900D0522F0EE241DF8EF128D
:1051A30051A622124555E02274F412038D74FD12A8
:1051B30009358A088B097401120B0774021252D441
:1051C3008A0A8B0BAE0AAF0BEE4F700302528312A7
:1051D30050CB7404F0A3E41252A3A3A3A3E064018D
:1051E300700888828983A37420F0850882850983E7
:1051F300A3A3A3A3A3E06401700988828983A3E026
:10520300D2E6F0850882850983A3A3A3A3A3A3E021
:105213006401700A88828983A3E0D2E78006EE24C2
:10522300131261611252B4E06401700AEE24161283
:1052330052C024188008EE24171252C0241AF58293
:10524300EF12529B1252CD64017009EE240F1252D9
:1052530088A3E4F0850882850983122BFD6009EE9B
:10526300240F1232DF4404F01252DF8508828509CD
:10527300831250E31250ACEEFAEFFB120BFE8002E6
:1052830079100232D2F582EF12528F223400F58365
:105293007401F022F582E50912406AE8F0A3E922DD
:1052A3001252A7221252AB22F0850882850983A3EA
:1052B300221252B8221252ABA3A3A3A32212406715
:1052C30074011252A7124413EE221252B8A3A3E0A0
:1052D300221252D8221256E2120E8C22EE2417F515
:1052E30082EF12528F120E1AEE241A124067EAF05E
:1052F300A3EBF02274F412038D74F31209358908B9
:10530300EAFEEBFF7C0D7D00790085188285198309
:10531300AA82AB831213EAEE241D123212125BCD62
:10532300A3E0F8741F58600A7901121C4279000245
:1053330053D2E8A2E55008740C120B077401F0E88D
:10534300A2E75008740B120B077401F0E8A2E6748D
:105353000A5008120B077401F08008120B07E0646F
:10536300017005EE24138003EE2415125A0A740209
:10537300120B07AA82AB83121C5A12320F1253E08C
:105383001250AC740A120B07E064017033122BF055
:10539300703B120E268A0A8B0BA80AA90BEE240B6C
:1053A3001232DF687003A3E0697022120E1AEAFC5E
:1053B300EBFD7402120B07AA82AB831253DB600D61
:1053C300851882851983AA82AB83120C5EA908749F
:1053D3000D0232D4EEFAEFFB121C54E922E0125311
:1053E300E522F8A3E0F98518828519832274F61261
:1053F300038D74F31209358A088B09ECFEEDFF7CEB
:105403000D7D007900851882851983AA82AB8312EA
:105413005D72A3A3A3A3A3A3A3A3A312547A1254B9
:1054230083F8A2E55008740B120B077401F0E8A28D
:10543300E75008740A120B077401F0E8A2E6EE5075
:1054430004241380022415125A0A7402120B071241
:10545300546CA3A3E0C0E0740C120B07D0E0125607
:10546300DA120C58740D024F33AA82AB83121C5A02
:1054730085088285098322E01253E5E8F0A3E92237
:10548300F0124064125BD1A3E02274F712038D740F
:10549300E1120935EAFEEBFF8E828F8312550FA3CB
:1054A300A3A3E0A2E050518E828F83122D508A82F3
:1054B3008B83A3A3A3A3A3A3E054FE1255278A823D
:1054C3008B83125520E0F98A828B83E0241CFAA394
:1054D300E0123C8012550B120E14E9701B741D125E
:1054E3000B0712551A7011851882851983AC82AD8A
:1054F30083EEFAEFFB120E7A02574C8E828F83A350
:10550300A3A3A3A3A3A3A3A31232CD2212551322B1
:10551300125BD5A3A3A32212409C640422E0241BA4
:1055230012454E221243FCAC82AD8322E9F8790086
:10553300740468600A740A6860057403687001097A
:1055430002085374F612038D8A828B837420F0A3AE
:10555300A37401F0120C048A088B09AE08AF09EE9C
:105563004F60108E828F837401F09003A3E0700369
:105573001252DFEEFAEFFB024F36C082C083900374
:10558300B97401F0E9A2E350037403F0E9A2E15016
:1055930004E0D2E2F002441D74F612038D79007C1C
:1055A300008A088B0978081205EBF8FF07CE55CC63
:1055B30055CC55CC55CC55C555C955CE55C2550CB2
:1055C30080097C0480050C80F67C089003B9E05CBC
:1055D3006003098003EC600109024F3674F612037D
:1055E3008D8A828B83E07012A3124F2D600C8A8206
:1055F3008B8312550A121D9280047A007B00024F9E
:105603003674F512038D74F31209358A088B09EC8D
:10561300FEEDFF750A12EA4509700579000256D3BB
:10562300900356E065087004A3E065097014120E38
:105633001AEAFCEBFD1253D77005750A0180037556
:105643000A00851882851983E4F004120B07E50824
:10565300F0A3E5091256DA120BC8E96027740312A6
:105663000B07AA82AB83120BAAE964017016750AB1
:10567300017403120B07AC82AD831253D7602175FB
:105683000A00801C7412650A70169003A2E064027B
:10569300700EEEFCEFFDAA08AB09120BE0E970DF18
:1056A300EEFCEFFDAA08AB09120F04E9F8740A68CF
:1056B3007005750A01801774A0687012EEFCEFFD87
:1056C300AA08AB09120F10AA08AB09120F22A90AE4
:1056D300740D0260DA74021256DE221256E22212AE
:1056E30043FCAA82AB832274F712038DEAFEEBFF1D
:1056F3008E828F83A3A3A3A3A3A3A3A3E06015EE2A
:1057030024151232121232BD120EA4E96401700480
:10571300790180258E828F83A3A3A3A3A3A3A3E0F0
:105723006015EE241312321212573EFAA3E0FB1255
:105733000EA4E9640160D979008013123D6CA3A320
:10574300A3A3A3A3A3A3A3E022741F1208BB7F01F7
:105753000205A574F012038D74FD1209358A088BB6
:1057630009ECFEEDFF890B7413120B07E0F50C75C2
:105773000A017401120B077404125C056048E50CFE
:10578300601DEA2417F582EB125E48125BF38A82EE
:105793008B83E0D2E7F0EA2414F582EB1243211263
:1057A30058D9EB1250D1740312616BEE888289834E
:1057B300A3A3F0EF88828983A3A3123E16123E1D92
:1057C300120BFEE9F50AA90A74030258C674EC1217
:1057D300038D74F51209358A0A8B0B890C8C0E8D97
:1057E3000F741F120B07E0F50D7420120B07E0F581
:1057F30010A3E0F5117E01EE120B07740AF0E970B5
:1058030007E50DC333240AF01259AB70030258ADF8
:105813001259C07409F0A3E50CC43354E0450D12CA
:1058230059D2E50C702D7C008023ECC333F8E433AC
:10583300F9E51028F8E51139F9888289831258BAF5
:105843008882898312352FF0A30EAF830CECC395A6
:105853000D40D7E5082417F582E50912528B120E85
:105863001AE508241AF582E509124E6F7403120B28
:1058730007AC82AD83AA0AAB0B120BB0E96019E542
:10588300082416F582E5091258B4120B07A882A959
:1058930083E50824181250A58508828509831261BF
:1058A30067AA08AB09120BFEE9FEEEF9740B025965
:1058B300A312528F740322E08E828F83F0A3AE82F1
:1058C300AF83221208BB7F080205A51240C4F9EA80
:1058D3002400E439FB22EA240BF5822274EE12033E
:1058E3008D8A0C8B0D890E8C088D097412120B078F
:1058F300E0F50F7413120B0712598C90053A124FEF
:105903002D6077E50FC333F8E433F9E8240EFAE9A1
:105913003400FB1214088A108B11AE10AF11EE4F36
:1059230060588E828F8374D4F0A3A3E50CF0A3E5B3
:105933000D125994E50EF0AC08AD09EE2405FAEF0B
:10594300125C0EEE240D123212E50FF0850A088563
:105953000B09750A00780812086FE50FC333FCE4DE
:1059630033FDEE240EFAEF1259831208BBEEFAEF61
:10597300FB90053A125BCD121E3302474CFAE50940
:105983003400FB1213DE740322E0F50AA3E0F50BE7
:10599300221259982212599C22124335A3A3A322FF
:1059A3001208BB7F0C0205A5851882851983AA827C
:1059B300AB83120E8C8A088B09EA450922EA240B71
:1059C300F582EB1250C5FEA3E0FF8E828F8322F097
:1059D300A3AE82AF83AC0EAD0FEEFAEFFB1259E428
:1059E30022121C5A1259EB22EE2408FEEF3400FF58
:1059F30022E0FA8E828F83A3A3E022FEA3E0340089
:105A0300FF8E828F83E022124067125A1122E0FC3C
:105A1300A3E0FD221232CD120E022274F612038D80
:105A2300EAFEEBFF9003BA801388828983E06E70ED
:105A330003A3E06F603A88828983A3A3124F2D707A
:105A4300E87A047B001214A48A088B09A808A90920
:105A5300E849601C88828983125A7A9003BA1255E6
:105A63000B88828983A3A3124E739003BA1250AC9E
:105A7300024F368A828B83EEF0A3EFF02274F41286
:105A8300038D7E009003BA80070E88828983A3A3C7
:105A9300124F2D70F4EEC333FAE433FB125B28602C
:105AA3007E7F009003BA802488828983125A0DEF87
:105AB300C333FAE433FBE5082AF582E5093BF583B2
:105AC300ECF0A3EDF00F88828983A3A3124F2D700E
:105AD300D79003AB122C2A7003A3E06978087019DE
:105AE300120873EEF50A780A1208777C777D03793A
:105AF300009003AB125B33801A120873EEF50A7839
:105B03000A1208777C777D0379009003AB12550B5B
:105B1300120EB674031208BBAA08AB091214AA1218
:105B23000C160232D71214A48A088B09EA450922FB
